:020000040001F9
:10B00000A8310020F5B001000FB1010011B101001D
:10B010000000000000000000000000000000000030
:10B0200000000000000000000000000013B101005B
:10B03000000000000000000015B1010017B1010080
:10B0400019B1010019B101000DBB010019B10100D6
:10B0500019B10100000000001DB7010019B1010085
:10B0600019B1010019B1010019B1010019B10100B4
:10B0700019B1010019B1010019B1010019B10100A4
:10B0800019B101003DBA010019B1010019B1010067
:10B0900065BA010019B101006DBA010019B10100D2
:10B0A00019B1010019B1010000000000000000000A
:10B0B0000000000000000000000000000000000090
:10B0C0000348854600F084FA004800473901020031
:10B0D000A8310020401E00BF00BF00BF00BF00BF5E
:10B0E00000BF00BF00BF00BF00BF00BF00BFF1D165
:10B0F000704700000321094802680A4302600848BB
:10B1000002680A4302600748804707480047FEE795
:10B11000FEE7FEE7FEE7FEE7FEE70000240500404D
:10B1200054050040A9BA0100C1B0010030B50B467A
:10B13000014600202022012409E00D46D5409D4211
:10B1400005D31D469540491B254695404019154697
:10B15000521E002DF1DC30BD70B5002425460028BC
:10B1600001DA01244042002901DA01254942FFF7B2
:10B17000DDFFAC4200D04042002C00D0494270BDFF
:10B1800003460B439B0703D009E008C9121F08C000
:10B19000042AFAD203E00B780370401C491C521EAB
:10B1A000F9D27047D2B201E00270401C491EFBD2B6
:10B1B00070470022F6E710B513460A4604461946C2
:10B1C000FFF7F0FF204610BD30B5044600200346CF
:10B1D00000E05B1C934203D2E05CCD5C401BF8D0E6
:10B1E00030BDF0B51FB40646002082B005464024AD
:10B1F000019100901BE0019922460F46304600F075
:10B2000009FA049A059B801A994110D310461946F1
:10B21000224600F0EFF9361A8F41019722460120AD
:10B220000021009F00F0E6F938184D4100902046BB
:10B23000641E0028DFDC019B00982946324607B0D7
:10B24000F0BD0000F0B507460846584087B0C00F73
:10B25000049048000E46590040084908BC1A88412D
:10B2600005D2384631461E4617460B460246580060
:10B27000400810434CD0300D039040055900400D5C
:10B28000490D0590401A0290402872DA18030121F6
:10B29000000B09050843019004980092002805D08E
:10B2A0000199524200208841009201900298402169
:10B2B0000A1A0199009800F09DF905460C466B4664
:10B2C00007CB00F0B8F9C0197141039A0E0D0023A5
:10B2D000D71756401A467A40164344D0049A002A9B
:10B2E0002DD0029A012A039A15DC1205C01A914149
:10B2F00001263605001C7141D20F059ED20700932E
:10B30000019202962A46234600F0B5F907B0F0BD37
:10B3100038463146FAE71605224A0F46B218C01AD7
:10B32000B74101210905001C4F4100187F4111461A
:10B3300018187941E20F10436D19644113E0E207D8
:10B340006D0815436408C2071443039A01261205C9
:10B35000C01A91413605001C7141CE0740083043A8
:10B360004908C01851412A46234600F077F9CDE735
:10B37000FFE7049801224000C117121A00238B41F5
:10B3800004983146C417381AA141EEE730B40124BD
:10B39000E407634030BC55E730B40124E407614062
:10B3A00030BC4FE70000E0FFF0B51FB488B00B9948
:10B3B0000998002448400999C00F4900490809919B
:10B3C000C0070B990090490049080B91099908980A
:10B3D000A64608431CD00B990A98084318D0099830
:10B3E00001244000420D4800410D09982405000346
:10B3F000000B204309900B980003000B20430B9097
:10B4000050181C494018002201901446104605E0CF
:10B41000002001460DB0F0BD032801DA034600E02C
:10B4200003239C46C11A0AAE0AE05F0008ADED5B3B
:10B430004F00F75B7D430027AA187C41491C5B1E27
:10B440006145F2DD410004AB5A522104120C0A435B
:10B45000240C401C0828DFDB0198029000997046FC
:10B4600001910090059B049A0799069800F003F952
:10B47000D0E700000DFCFFFFF0B50C465C4085B046
:10B48000E40FE40703944C00002664085900944636
:10B49000490802460296224321D062460A431ED042
:10B4A0006200570D4A000E032303550D0124024686
:10B4B0002C492405781B1B0B360B401823432643CD
:10B4C000614600901C46501AB44103D30098401CBA
:10B4D000009002E0921800985B41002803DA0020F7
:10B4E000014605B0F0BD002001210905074686464A
:10B4F00011E064461D46141BB54106D36546521B38
:10B50000B341744607430C43A646CD07400849089B
:10B51000284392185B4105460D43EAD11046184373
:10B5200013D06046194650407140084306D060462B
:10B53000101AB34106D20122002306E000220123A3
:10B54000DB0702E00122D243531000987446010544
:10B55000381C6141029C039D0019694100F07EF88E
:10B56000BFE70000FD0300004A0009030123090BA7
:10B570001B0519430A4B10B5520D9A4202DA0020FE
:10B58000014610BD064B34339A4203DC9A1A00F090
:10B5900041F810BD034BD21800F02CF810BD00008C
:10B5A000FF030000CDFBFFFF10B5002904DB0124E1
:10B5B000E40740428C412146002B04DB1C4601235A
:10B5C000DB075242A341994200D1904210BD0000D6
:10B5D000064C0125064E05E0E36807CC2B430C3CE6
:10B5E00098471034B442F7D3FFF76EFDD42A020017
:10B5F000F42A020010B5202A04DB0146203A9140CB
:10B60000002010BD914020239C1A0346E3401943BB
:10B61000904010BD10B5202A04DB0846203AD040E7
:10B62000002110BD0B46D340D0402024A21A9140E7
:10B630000843194610BD10B5202A06DBCB17084673
:10B64000203A1041C1170B4306E00B461341D0408E
:10B650002024A21A91400843194610BD10B5002BB2
:10B6600008DA0024401C614192185B411A4301D161
:10B670004008400010BDF0B51FB482B005460C0074
:10B6800003D0084600F056FA02E000F053FA2030EA
:10B690000246009021462846FFF7ACFF049B059A1E
:10B6A00004460F4618431143084314D0184610436C
:10B6B0001BD0009840210A1A18460599FFF7AAFFE7
:10B6C00005460E46009A05990498FFF793FF084334
:10B6D00005D0012004E02046394607B0F0BD002027
:10B6E000C11705430E432C43374300990E98630559
:10B6F000401A7905E40A00220C43FD0A0A3002D5FB
:10B7000000200146E9E70105101969410C9C0D9DD7
:10B7100000196941FFF7A2FFDFE70000F0B58BB029
:10B72000002700200A90FF20013009900125002405
:10B7300016E0099805F01AF900280BD000BF7048F0
:10B7400040682840002805D0099805F007F93846D8
:10B75000284307466D000998001D80B20990641CBB
:10B76000042CE6D3FF207D3005F000F900280AD034
:10B77000FF207D3005F0F2F80120C007074300BF2D
:10B78000604800690A903807000F00282AD0012578
:10B79000002425E02846384000281FD000BF5A4822
:10B7A000512109014018A10040581F2109020840F9
:10B7B000000A089000BF5448512109014018A10017
:10B7C0004058032109040840000C0790204602F06D
:10B7D00033FC064607990898B04700BF6D00641C0B
:10B7E000042CD7D3F80FC00700287DD00020089084
:10B7F0000790401E069000BF00200890002464E0DF
:10B800004248005D0590C0210598884306463F48A0
:10B810000057401C002857D00120B040069908402E
:10B82000002851D0C021059808408011049030466E
:10B8300002F046FC029002F0FFFB03900398002800
:10B8400002D1049803283ED10120B0400546049857
:10B85000032802D107982843079000BF052000075E
:10B86000072109024018B10040580321090408408B
:10B87000000C02900A982840002802D00298022862
:10B8800006D00A98284000281CD10298032819D114
:10B89000049803280FD10298022801D1032000E068
:10B8A000022001903046019905F027F80898401CC5
:10B8B000C0B2089000BF0398002803D03046039A16
:10B8C0000499904700BF00BF641C042C98D30898CB
:10B8D00000280ED000BF0B49096908460A99884222
:10B8E00003D10021089103E008E00A90079906912E
:10B8F00000BF0898002800D07EE700BF0BB0F0BD65
:10B90000006300400005005000600040082800204F
:10B91000C206D20E01219140014A11607047000019
:10B9200080E200E0C206D20E01219140014A11607E
:10B930007047000000E100E0C206D20E01219140F4
:10B94000014A11607047000000E200E010B50028D5
:10B9500019DA1A4A03071B0F083B9B089B00D258B1
:10B960008307DC0EFF23A3409A438B071B0E84073B
:10B97000E40EA3401A43114B0407240F083CA4080B
:10B98000A4001A5118E00E4A03231B02D2188308A0
:10B990009B00D2588307DC0EFF23A3409A438B07FA
:10B9A0001B0E8407E40EA3401A43054B0324240214
:10B9B0001B198408A4001A5110BD00001CED00E002
:10B9C00000E100E010B5002819DA1A4A03071B0F3E
:10B9D000083B9B089B00D2588307DC0EFF23A34043
:10B9E0009A438B071B0E8407E40EA3401A43114BA6
:10B9F0000407240F083CA408A4001A5118E00E4ABA
:10BA000003231B02D21883089B00D2588307DC0E45
:10BA1000FF23A3409A438B071B0E8407E40EA34029
:10BA20001A43054B032424021B198408A4001A514D
:10BA300010BD00001CED00E000E100E010B50020AA
:10BA4000074908600021064841608160C16000200C
:10BA5000034940390860486006F0ECFB10BD000067
:10BA60004011014010B506F0D1FA10BD70B50C4878
:10BA70000068002811D00A4800688047044600BFCB
:10BA80002546002D07D000BF064AFF216731284612
:10BA900000F0C4FE00BF00BF01E004F0E9F870BD93
:10BAA000742100207C2A020010B504F06FF90028F0
:10BAB00005D0104810494860C8131049886104F047
:10BAC00049F9002802D001200D49886004F0C0F92E
:10BAD00000280ED00B480068012807D00A48094901
:10BAE000086000BF074800680128FBD1C020054955
:10BAF000486110BDDFFF07C000050040006C00403A
:10BB00000006004000EC06407593000010B506F0FA
:10BB100017FD10BD0FB410B503A9044B044A0298D9
:10BB200000F0E8F810BC08BC04B0184735F8010074
:10BB3000642100202021020C01D010211046020AAD
:10BB400001D010460839020901D01046091F8208A9
:10BB500001D01046891E420801D0881E7047081A7D
:10BB6000704730B47446641E2578641CAB4204D31D
:10BB7000635D5B00E31830BC18471D46F8E702E040
:10BB800008C8121F08C1002AFAD170477047002068
:10BB900001E001C1121F002AFBD17047F0B51FB4AC
:10BBA00084B007980699020D014314D04A484B49C6
:10BBB0001018484305140F9801280E981CD0281A15
:10BBC000401C0024464E47490094019102900028F1
:10BBD00014DA474227E00F98012443A3012808D034
:10BBE000002104980F9A84600360C260416009B02C
:10BBF000F0BD0E98C143F4E74042E2E7074612E089
:10BC0000F80707D02246334601990098FFF7CCFB8E
:10BC1000019100902246334610461946FFF7C4FBB7
:10BC200004460E467F10002FEAD10298019B00289F
:10BC3000009A0799069802DAFFF7B6FB01E0FFF7D2
:10BC40001BFC04460E460022284BFFF7ADFC03D830
:10BC50000020C043014607E00022254B2046314624
:10BC6000FFF7F0FAFFF780FC102409E0002C0ADB54
:10BC70000A220023FFF7B5FA059B30321A55641EDD
:10BC800002460A43F2D11122641C059B121B1C19A7
:10BC90000F9B012B03D0012308430ED10AE0084378
:10BCA00004D011200E9000200F9084E70E98151AF2
:10BCB0006D1E0BE00E98824202DD00236D1C03E036
:10BCC000824201DA00236D1E002BEED004980F99FA
:10BCD0008260C16030C08AE701FCFFFF104D0000A8
:10BCE000000024400000F03F300000000000F0435E
:10BCF0000000E03FFFB597B00646002518E2252872
:10BD000077D100242746FD49049400E00443761CC3
:10BD100032780120203A90400842F7D130782A2822
:10BD20000ED00222307801463039092916D80499FC
:10BD30000A235943303940181443761C0490F1E724
:10BD4000189802C804911890002904DA01204003D1
:10BD500004434842049002200443761C30782E2885
:10BD600014D1042004437078761C2A2809D118982D
:10BD7000761C80C8189009E00A214F43303FC7194C
:10BD8000761C3078014630390929F5D930786C288D
:10BD900010D006DC4C281AD068280ED06A2817D19B
:10BDA00004E0742813D07A2812D110E00120400555
:10BDB00004430CE00121090501E0032109050C43BE
:10BDC0007178814203D1012000052418761C761C6D
:10BDD0003078119066280BD013DC58287DD009DC10
:10BDE00000287BD04528F6D04628F4D047281AD121
:10BDF000A5E118E0632835D0642870D0652812D1F9
:10BE00009DE170286CD008DC6728F1D069287BD0D0
:10BE10006E280DD06F2806D1BAE073282ED0752871
:10BE200071D0782859D01A9A199990476D1C7EE1E3
:10BE30006002400F022809D003280DD0042818986A
:10BE400001680DD00D60001D189070E11898EA1778
:10BE500001680D604A60F6E7189801680D80F2E706
:10BE60000D70F0E718986A4601781172001D18905D
:10BE70000020507202A80090012005E0189802C826
:10BE8000189000200091C04361070DD5002101E00A
:10BE90000199491C0191B94212DA8142F8DB009AFA
:10BEA000515C0029F4D10BE0002101E00199491C0B
:10BEB00001918142FADB019A0099895C0029F5D150
:10BEC000019904981A9B471A21463846199A00F09E
:10BED00097FA0199401945180BE04FE02CE113E067
:10BEE0004EE0009800990078491C00911A9A19991F
:10BEF00090470198401E0190401CF2D121463846DF
:10BF00001A9B199A10E137E00A2000210090019154
:10BF10006002410F022907D0189A01CA1892C2176D
:10BF20009446032908D00AE01898C01DC108C9002A
:10BF300005C91891944607E000B2C2179446042937
:10BF400002D140B2C1178C4600226146944506DA00
:10BF50000A460021404291418C462D2102E02105F4
:10BF600004D52B216A461173012103E0E10701D0BA
:10BF70002021F7E7029155E00A200AE0102008E0AE
:10BF8000102000900021042004430191082703E0C1
:10BF900008200021019100906002410F022907D082
:10BFA000189A01CA189200229446032908D008E082
:10BFB0001898C01DC108C90005C91891944603E02E
:10BFC00080B2042900D1C0B200210291210729D5F5
:10BFD0001199702906D0009A1021019B4A401A43FA
:10BFE00005D00EE040216A461173012108E0614648
:10BFF000014306D030216A46117311995173022111
:10C000000291009A0821019B4A401A430AD16146D5
:10C01000014301D1610705D530216A461173012121
:10C020007F1E02911199582904D035A10E910DA9B6
:10C030000D910DE037A1F9E76146019B009AFFF7EA
:10C04000D0F80E9B8C469B5C0D9A521E0D9213707D
:10C0500061460143F0D10D9805A9081A20300190DE
:10C06000600703D501200004844300E00127019804
:10C07000874201DD381A00E0002001990090411844
:10C08000029809180498401A0490E00306D4214647
:10C090001A9B199A049800F0B3F94519002706E095
:10C0A00003A81A9AC05D199990476D1C7F1C0298CD
:10C0B0008742F5DBE0030CD521461A9B199A0498B8
:10C0C00000F09EF9451904E01A9A3020199990471A
:10C0D0006D1C0099481E00900029F5DC08E00D98C1
:10C0E0000D990078491C0D911A9A199990476D1C69
:10C0F0000199481E01900029F1DC63E10928010043
:10C1000030313233343536373839616263646566CD
:10C11000000000003031323334353637383941428F
:10C12000434445460000000000F05AF94519761CCA
:10C130003078002800D0E2E528461BB0F0BD60074B
:10C1400000D406271898C01DC108C90048680A68AD
:10C150000831C30FDB071891190001D09CA108E03A
:10C16000210501D59BA104E0E10701D09AA100E0DF
:10C170009AA1430011985B08109165280CD006DC49
:10C18000452809D046281DD0472841D141E06628DE
:10C1900018D067283CD13CE00021112F01DB112091
:10C1A00000E0781C0191009008A911A8FFF7F6FCA7
:10C1B000139905910021119A15927F1C12980197ED
:10C1C000009150E00120C00703900120019008A9D0
:10C1D000009711A8FFF7E2FC139A14990592002228
:10C1E000119B009212981593059A0192002901D093
:10C1F000104602E0791C40180190381A01D50198C8
:10C2000004E04042401E0090781C0190C01B029048
:10C2100043E0012F00DA01270021112F01DD112059
:10C2200000E038460191009008A911A8FFF7B6FC7C
:10C2300013990591119A0021129815920091019776
:10C2400021070CD40599B94201DB019900E0019165
:10C25000012904DD159A491E515C302906D0B842E7
:10C2600001DA011D05DA0121029115E00199491E4B
:10C27000EDE7002805DC0099411800910199091AA1
:10C2800003E0019A411C914200DD01910099401A9E
:10C29000401C02900120C0070390200706D4029999
:10C2A0000198814202DB0020C043029000206946D1
:10C2B000C87707AF012103980337C907884224D004
:10C2C000022011902B201290039800280CDA404293
:10C2D00003902D20129007E00A210398FEF726FF15
:10C2E00030317F1E039039701199481E119000293A
:10C2F000F2DC03980028EFD1791E1298087030788C
:10C30000202108404530BF1E387006A8C01BC01D44
:10C31000039010980078002800D00120019941185E
:10C320000298C0170918039809180498401A401E6B
:10C330000490E00306D421461A9B199A049800F051
:10C340005FF8451910980078002803D01A9A1999B7
:10C3500090476D1CE00324D521461A9B199A049836
:10C3600000F04EF845191CE00098002807DB009902
:10C370000598884203DD1598405C199901E01999E8
:10C3800030201A9A904700986D1C401C009002982B
:10C39000401E0290002804D11A9A2E201999904725
:10C3A0006D1C0199481E01900029DDDC05E03878FC
:10C3B0001A9A7F1C199990476D1C0399481E039087
:10C3C0000029F4DC21461A9B199A0498ACE6000077
:10C3D0002D0000002B0000002000000000000000E5
:10C3E000F8B5044600251E461746880404D405E027
:10C3F00039462020B0476D1C641EF9D52846F8BD8B
:10C40000FFB50446002581B01E46C80301D530277C
:10C4100000E02027880404D505E038460399B0479A
:10C420006D1C641EF9D5284605B0F0BDF7B582B085
:10C43000044616460025378800203080606B0028AF
:10C440000ED0616B08783B463246039905F048FAF6
:10C45000054600BF002D02D0284605B0F0BD00BF44
:10C46000206B00280CD03B463246206B039905F028
:10C470005BFF054600BF002D01D02846EDE700BF59
:10C480002E20005D00280DD02E21085D3B4632464F
:10C49000039903F038FD054600BF002D01D0284662
:10C4A000DBE700BF2D20005D00280BD03A46314667
:10C4B000039800F090FF054600BF002D01D02846EC
:10C4C000CBE700BFA07800280BD03A46314603984E
:10C4D00000F05EFB054600BF002D01D02846BCE7FA
:10C4E00000BFE07800280DD0E17848B23B463246E4
:10C4F000039903F001F9054600BF002D01D028463D
:10C50000ABE700BF606800280ED0002061680856C5
:10C510003B463246039905F05DFF054600BF002DFE
:10C5200001D0284699E700BF208900280FDD019738
:10C5300000960622022120460830039B06F04AF9A5
:10C54000054600BF002D01D0284686E700BF208A9F
:10C5500000280FDD019700960722032120461030A6
:10C56000039B06F037F9054600BF002D01D0284691
:10C5700073E700BF208B00280FDD0197009615227E
:10C58000142120461830039B06F024F9054600BF0D
:10C59000002D01D0284660E700BF206A00280CD09B
:10C5A0003B463246206A039901F06AFF054600BF08
:10C5B000002D01D0284650E700BF606A00280CD04B
:10C5C0003B463246606A039903F01AFE054600BFF7
:10C5D000002D01D0284640E700BF2C20005D002838
:10C5E0000CDD3B4632462046039905F094F905469A
:10C5F00000BF002D01D028462FE700BF207800287B
:10C600000CD03B4632462046039903F035FE0546E2
:10C6100000BF002D01D028461FE700BF28461CE7B9
:10C620000146C87804221040002801D10720704735
:10C630000020FCE710B501220221002001F01AF9C8
:10C64000044600BF002C03D0072C01D0204610BDAB
:10C6500000BF07220221012001F00CF9044600BFAF
:10C66000002C03D0072C01D02046F0E700BF0A229F
:10C670000021084601F0FEF8044600BF002C03D05C
:10C68000072C01D02046E2E700BF0020DFE70000D2
:10C6900030B599B038210BA8FEF78BFD022108A810
:10C6A00001730621C173242102A8FEF782FD012136
:10C6B00068460175FF202D300690B42007900020B9
:10C6C0000B4B02AA014600900BA800F011FB044698
:10C6D00000BF2546002D07D000BF06A2FF21FE3176
:10C6E000284600F09BF800BF00BF19B030BD000025
:10C6F000110A02002E2E5C2E2E5C2E2E5C6D6169BE
:10C700006E2E6300014600BF064A50680122D20522
:10C710008243044B9A600122D2050240DA6000BFD6
:10C72000704700000005005010B5002407E0E1004C
:10C73000064A1268505C012103F026FE641C04487E
:10C7400000788442F3D3002010BD00002C2100208B
:10C7500030210020FEB506460C461746052F01D2B3
:10C760000720FEBD03F026FF002808D103F0FAFEE3
:10C77000054600BF002D01D02846F2E700BF17484C
:10C7800006601748047017480760002016490860C3
:10C790001649086017E0E00080190190144800680D
:10C7A0000090019880786946487001990878114A8C
:10C7B000694603F04DFE054600BF002D01D0284616
:10C7C000CFE700BF00BF2046611ECCB20028E2D1F7
:10C7D000094A0021094800F0AFF8C2E72C210020E7
:10C7E0003021002034210020382100203C2100206D
:10C7F0002C2A020081FB010005E80100282A020022
:10C8000070B504460D4616460C2001F061F832461C
:10C810002946204600F012F870BD0000FEB504461F
:10C820000E46154669460E80019502946A4600211F
:10C830000148FFF7E5FFFEBD0140000018B50124E7
:10C8400000946B461B781E4B186059609A601D4B14
:10C85000C318002B0CD0012B19D1194BDA60DB68FF
:10C860001B88174CA3612346DB685B68E3610EE01D
:10C87000134B1A611B699B68114C636123461B694A
:10C880001B88A36123461B695B68E36100BF00BF8F
:10C890000B4B1B680A4B5B68094B9B68084BDB68BA
:10C8A000074B1B69064B5B69054B9B69044BDB69B6
:10C8B00072B600BF6B461B78002BFBD162B618BD69
:10C8C00030290020FFBFFFFFF8B504460D4616468D
:10C8D00003480768324629462046B847F8BD00009D
:10C8E000A4270020F8B505460C4627780C21A0683F
:10C8F000484306490E580648006800902A463946C3
:10C90000204608302369B047F8BD0000F828002011
:10C910002421002010B50446064800781422504314
:10C92000044A121D81182046FFF7DCFF042005F0A1
:10C930007FF810BD2C28002010B503460C4600BF20
:10C940000D480068002801D1082010BD00BF002A52
:10C9500001D10720F9E7002B01D10720F5E718687E
:10C96000007C002801D00820EFE719680020087437
:10C970004C744A6100BFE8E744210020FFB581B054
:10C980000E4614461F4620468107890F002901D113
:10C99000012100E00021002902D1072005B0F0BDEF
:10C9A000002C04D100201C4908600720F6E704F0A1
:10C9B000A3FE1A480760032019490870164804604E
:10C9C000183400250CE0E900134A12688818002189
:10C9D0000170417086704460182171430C196D1C00
:10C9E000032DF0DB00200F4908600F4908700F4944
:10C9F00008701420FEF78CFF03211420FEF7E2FFDD
:10CA00001420FEF78FFF019804F04CFE04F044FE62
:10CA1000074908600020C1E7442100205C21002074
:10CA200040210020482100205821002059210020C9
:10CA30004C210020FEB504460D461746264600BF91
:10CA400012480068002801D10820FEBD00BF002C5C
:10CA500001D10820F9E7052D01D20720F5E770691B
:10CA6000002801D10820F0E7707C012801D1284678
:10CA700000E00020029005F083FE009701902A4616
:10CA80003146029B05F062FBDFE7000044210020F5
:10CA900070B50446254600BF0B480068002801D148
:10CAA000082070BD00BF002C02D06869002801D1A9
:10CAB0000820F6E70020287405F062FE06462946A5
:10CAC00005F070FBEDE7000044210020F0B589B0CF
:10CAD000044616461F4620221E4901A8FEF750FBB9
:10CAE000A06807902079002801D0012100E00021F2
:10CAF0006846017608A807706079002801D00E20EA
:10CB000000E0002069464876E0780390A078049021
:10CB100020780290607801900F48066000200F494D
:10CB200008702079022802D1062009B0F0BD0C4916
:10CB300001A803F049FD054600BF002D01D028469D
:10CB4000F3E700BF03F0C2FD0121064803F086FDB4
:10CB5000EBE70000C029020000210020FE20002099
:10CB60007D240200FD20002070B5044607480470B3
:10CB7000012103F019FE0546112D01D1042070BDDD
:10CB8000002D01D00320FAE70020F8E7FC20002068
:10CB9000F8B505460C4617462088001DB84201D955
:10CBA0000C20F8BD684679DF064600BF002E01D094
:10CBB0003046F6E700BF0320218868542088401CD7
:10CBC00020801920218868542088401C20802088DB
:10CBD00041196846008805F06DFD218840182080C5
:10CBE0000020DEE77047000070B50446206803F0BF
:10CBF000A7FE206803F075FE0021606803F064FE64
:10CC0000A0691449052212028918486200BF607D9C
:10CC1000217D02460A430F4B05252D025B19DA667A
:10CC200000BF0C486268216803F0E9FE207D0128FE
:10CC30000ED10021A06803F047FEE06803F080FEFB
:10CC4000E06803F04EFE0348A268E16803F0B5FE19
:10CC500070BD000000200040F3B593B00D461F21C9
:10CC6000129111911398002818D01398FFF7D8FC4F
:10CC7000044600BF002C02D0204615B0F0BD00BF16
:10CC800012AA09A91398FFF7D1FB044600BF002C94
:10CC900001D02046F1E700BF09AE02E000260020E7
:10CCA0001290002D17D0284604F04EFF044600BF16
:10CCB000002C01D02046E0E700BF11AA01A92846B8
:10CCC000FFF7B4FB044600BF002C01D02046D4E798
:10CCD00000BF01AF02E000270020119010A880885B
:10CCE000C3B210A80089C1B23A46304672DFC4E729
:10CCF000F8B504460F4615461E4600BF002C01D16C
:10CD00000E20F8BD00BF00BF002D01D10E20F8E7B6
:10CD100000BF002048490870484806604849069806
:10CD20000860242229464748FEF72AFA00F050F905
:10CD30004548464908604648886038214548FEF71E
:10CD400038FA207843490870A0788870E078C87075
:10CD500060784870626920694A6108610846E26843
:10CD6000A168C2608160E269A169C2618161606A93
:10CD700000281BD038483749486238498160606ACA
:10CD800000883449496A0880606A80883149496A64
:10CD90008880002005E0616A8968095C2F4A115487
:10CDA000401C2C49496A89888142F4D8A06A00282D
:10CDB00024D02B492B488160264988622849254880
:10CDC000806A8160A06A80882249896A8880A06A16
:10CDD00000882049896A0880002005E0A16A8968E6
:10CDE000095C1F4A1154401C1A49896A898881428A
:10CDF000F4D82C20015D174820300173206A0028E8
:10CE00000BD0194813490862206A4088096A488093
:10CE1000206A00880F49096A08806068002804D0E9
:10CE200012480C4948606068486039460948FFF775
:10CE300013FF0090009864E7C4200020BC2000206D
:10CE4000C020002070250020A4250020942500206B
:10CE5000C425002038250020E4250020F0250020EE
:10CE60001C26002010260020C8200020CC200020F6
:10CE700070B504462088102804D0112809D01B283A
:10CE80006CD11DE0A07D012802D1A0883549088021
:10CE900065E0002034490870A0883249098888423A
:10CEA0000DD1012000F0DEF80546002D07D02F48F7
:10CEB0000068002803D028462C49096888474EE0BE
:10CEC000207A002849D12A480078012806D0022873
:10CED00013D0032820D004283DD12FE0022000F0F9
:10CEE000C1F80546002D07D020480068002803D06F
:10CEF00028461E49096888472EE0032000F0B2F852
:10CF00000546002D07D019480068002803D02846A0
:10CF10001649096888471FE0032016490870042055
:10CF200000F0A0F80546002D07D010480068002842
:10CF300003D028460D49096888470DE000200D49B7
:10CF400008700D480068002804D0084600780A4997
:10CF50000968884700E000BF00BF00E000BF00BFD5
:10CF600070BD0000CE200020C5200020C020002081
:10CF7000C4200020B8200020BC20002070B504464A
:10CF80000025022C02D0032C18D100E000BF0D4870
:10CF90000078002811D000200A4908700A4800785B
:10CFA00000F060F80546002D07D00848006800280A
:10CFB00003D0284605490968884700E000BF00BF44
:10CFC00070BD0000B0200020C4200020C020002040
:10CFD00010B507210148FEF7ECF810BDB120002084
:10CFE00010B51B48007801282FD11A480078002876
:10CFF0002BD119480078002807D074DF044600BF01
:10D00000002C01D0204610BD00BF0120114908703E
:10D0100006201249C87000211048FFF71DFE044683
:10D0200000BF002C01D02046EDE700BF0A48007881
:10D0300000F018F80446002C07D0094800680028C2
:10D0400003D020460649096888470020DBE7000036
:10D0500070250020C5200020C42000203825002095
:10D06000C020002030B587B00546A248057002F008
:10D070005EFB002805D001209F490870002007B002
:10D0800030BDFFF7A5FF9D484078002803D09948A0
:10D09000007801280FD099488078002803D095485F
:10D0A0000078012807D095488078002812D0914850
:10D0B000007802280ED192480068002807D001208D
:10D0C0009049087008208E490968884702E00020CE
:10D0D0008C4908708748007801280BD18748407830
:10D0E000002804D0884803F0E1FE002802D1022085
:10D0F000804908707F48007802280BD17F488078EB
:10D10000002804D0804803F0D1FE002802D103207B
:10D11000784908707948007B002806D17548007866
:10D12000032802D10420734908707448007E002847
:10D1300008D170480078042804D100206D49087097
:10D14000724908706E480068002817D06948007856
:10D15000032803D06748007804280FD16748007877
:10D1600000280BD06A480078002807D101206949BF
:10D170000870072062490968884702E00020654975
:10D180000870182101A8FEF714F800216846017103
:10D1900000200290684601730020049055480078F2
:10D1A000012806D0022811D0032823D004287CD1DE
:10D1B00052E05548401E029001216846017100214D
:10D1C000C182818201205149087079E04E48401E99
:10D1D00002900121684601714848008981B2684681
:10D1E000C1824648808881B26846818202204749D0
:10D1F000087065E04148808A81B26846C1823F4834
:10D20000008A81B268468182434805F079FB002894
:10D210001ED03A48007800281AD03D4800780028EF
:10D2200016D10220694608733B48049004203B490C
:10D23000C87000213948FFF70FFD044600BF002CDD
:10D2400001D020461BE700BF05203049087002E0EE
:10D2500003202E49087033E02848808B81B268464D
:10D2600081822648008C81B26846C1822A4805F036
:10D2700047FB00281FD02148007800281BD02448F5
:10D280000078002817D102206946087322480490CC
:10D2900004202249C87000212048FFF7DDFC044625
:10D2A00000BF002C02D02046E9E608E000BF0620BF
:10D2B0001649087002E004201449087000E000BF1D
:10D2C00000BF0C480078002808D001A873DF04468E
:10D2D00000BF002C01D02046D1E600BF08480068FE
:10D2E000002804D0094800780549096888470020CB
:10D2F000C5E60000C4200020B020002070250020DA
:10D30000BC200020C7200020B2200020B820002030
:10D31000C5200020C62000209425002038250020AC
:10D3200070B505461C2229461448FDF729FF002048
:10D3300013490870286800280BD008221148296872
:10D34000FDF71EFF0F487ADF0446002C08D0204668
:10D3500070BD0C487BDF0446002C01D02046F7E767
:10D360000020C04308490880002008490870084A86
:10D3700000210848FFF7E0FAEAE700003C26002019
:10D38000E4200020D0200020DA200020D820002037
:10D39000E52602008829020010B5044620881028DE
:10D3A00006D0112808D012280ED0502810D107E03E
:10D3B000204603F0BDFB0CE0204603F0D7FB08E05D
:10D3C000204603F0F5FB04E0204603F0A5FB00E057
:10D3D00000BF00BF10BDFEB505460C4617462088AD
:10D3E0000930B84201D90C20FEBD684671DF0646FF
:10D3F00000BF002E01D03046F6E700BF082021888C
:10D4000068542088401C20801B2021886854208874
:10D41000401C208021884819062200A90131FDF70F
:10D42000AFFE2088801D208068460078002802D149
:10D430002188685402E00120218868542088401C1B
:10D4400020800020D0E7000010B50446204601F0FF
:10D4500091FB2046FFF7A0FF204600F0F1F82046A0
:10D4600003F0FCFA2046FFF703FD2146014800F0D7
:10D4700003F810BD902100200A88102A02D0112A3A
:10D4800007D102E08A88028004E00022D2430280B1
:10D4900000E000BF00BF704770B586B03B48006831
:10D4A000059000BF00234822394905A804F008FB75
:10D4B000054600BF2E46002E07D000BF35A2FF2133
:10D4C00075313046FFF7AAF900BF00BF00BF6A46BA
:10D4D0000121002004F0D2FA044600BF2546002DA9
:10D4E00007D000BF2BA2FF217B312846FFF796F91A
:10D4F00000BF00BF00BF2B4E304604F07BF904464E
:10D5000000BF2546002D07D000BF22A2FF217E319B
:10D510002846FFF783F900BF00BF00BF012069461E
:10D520000873684604F09CFA044600BF2546002DA7
:10D5300007D000BF17A2FF2183312846FFF76EF9FD
:10D5400000BF00BF184804F07DFA044600BF25461E
:10D55000002D07D000BF0FA2FF2187312846FFF71B
:10D560005DF900BF00BF114804F0E0FA044600BFB7
:10D570002546002D07D000BF06A2FF218B3128468B
:10D58000FFF74CF900BF00BF06B070BD1C290200B8
:10D59000842300202E2E5C2E2E5C2E2E5C6D616965
:10D5A0006E2E6300E81F002049D40100F91E02001E
:10D5B0007CB50446A1786A460D4803F017FD054680
:10D5C000002D13D161781C2251430A4A88181C236C
:10D5D0001A46694603F046FE0748807A80000749EC
:10D5E0000A58214668469047054600BF7CBD0000AA
:10D5F000E820002058270020A42700209C290200B2
:10D6000070B505460C4600260B480560002C09D075
:10D61000204604F0A1FA064600BF002E01D0304695
:10D6200070BD00BF05480068002802D1FFF702F86E
:10D6300006463046F4E70000A8200020AC20002079
:10D6400070B505462888102802D0112832D118E07C
:10D650001A48006800280ED100F0DAFF044600BF27
:10D66000002C07D016480068002803D02046144933
:10D670000968884700BF11480068401C0F490860CE
:10D6800019E00E480068401E0C4908600846006812
:10D6900000280ED1FEF7CEFF044600BF002C07D0B5
:10D6A00007480068002803D02046054909688847D4
:10D6B00000BF00E000BF00BF70BD0000AC20002034
:10D6C000A820002010B5032000F032FC044600BF63
:10D6D000002C03D0062C01D0204610BD00BF002036
:10D6E000FBE70000F3B581B006460025002400E00A
:10D6F000641C042C04D2A00029490858B042F7D178
:10D70000042C42D20298002825D0012802D00228F9
:10D710003AD133E06000201822490D5C60002018E7
:10D720004018407800280ED01F4800680A22504355
:10D7300001461E4A1E480068FFF77CF90746002F85
:10D7400001D11A48067060002018164940188078E8
:10D750001849085518E016480068FFF799F9154868
:10D76000005D610061180F4A89188978884204D1E8
:10D770006000201811464018857805E060002018E8
:10D7800008494018457800BF00BF002D07D00A485F
:10D790000068002803D02846074909688847FEBD6D
:10D7A000582902000C25002090200020A0200020F5
:10D7B00054290200A12000209C20002010B5024620
:10D7C000042A0FD2094B1B69D8439300084CE45C30
:10D7D0000123A3400340002B01D0012300E00023DC
:10D7E0000B7001E000200870002010BD0005005003
:10D7F0005829020070B50546042D06D0072D19D012
:10D800000A2D2AD104F0DAF828E013211448008800
:10D8100076DF0446082C0CD000BF2646002E07D029
:10D8200000BF10A2FF21A0313046FEF7F7FF00BF76
:10D8300000BF13E0FFF7D4FB0446082C0CD000BF58
:10D840002646002E07D000BF06A2FF21A831304691
:10D85000FEF7E4FF00BF00BF00E000BF00BF70BDE7
:10D86000822000202E2E5C2E2E5C2E2E5C6D616997
:10D870006E2E630030B503460020042B24D2012A0B
:10D8800007D1012903D11C460D34E4B200E0002485
:10D89000224600290FD0012902D0022911D104E02B
:10D8A0005C001C19094D2A550DE05C001C19074D40
:10D8B0006419627007E05C001C19044D6419A270C1
:10D8C00001E0072000BF00E0072030BD0C2500204C
:10D8D00070B50446002506480078C007C00F002830
:10D8E00003D0204600F070F80546284670BD0000C1
:10D8F00094200020F7B505460E4600242748066010
:10D90000274805602749029808600220284000281F
:10D9100022D0002706E0012211463846FFF7AAFF71
:10D9200004467F1C042F01D2002CF4D0002C05D11A
:10D93000720804211C48FEF70DFF0446002C02D19A
:10D94000FEF7F2FE0446002C05D1184A00211848C3
:10D95000FEF7F2FF044600BFE807C00F00280AD018
:10D9600000BF0F204005134988600020C86000BF39
:10D970000F2040058861002C05D10F4A00210F4877
:10D98000FEF7DAFF0446002C05D10D4A01210D48AF
:10D99000FEF7D2FF04462046FEBD00009020002086
:10D9A000942000209C200020682902008DDF0100C7
:10D9B000542902000005005071FF01004C290200AB
:10D9C00005C7010050290200F8B5044600250026CD
:10D9D0002300FEF7C6F8180D1E1F68B1F9F8F7F618
:10D9E000F5F4F3F2F1F0EFEEEDECEBEAE9E8E7E65F
:10D9F00000BFF74801680F20400588430F21490503
:10DA00000840F44988600020C86000BFF2480470F4
:10DA100080E200BF00BFEE48016807208005884310
:10DA20000F2149050840EB4988600020C86000BF0D
:10DA3000084640680F214905484001214905084032
:10DA400000280FD000BF0846E24988600020C86067
:10DA500000BF022C02D1E120C00001E07D20400186
:10DA600006460EE000BF01204005DA49C8600020EC
:10DA7000886000BF022C01D1C82001E0FF20913056
:10DA80000646D548047064213046FDF74FFBD34964
:10DA900009684843074600223946D1480068FEF726
:10DAA000C9FF054636E200BFC94801680720800566
:10DAB00088430F2149050840C64988600020C86096
:10DAC00000BF084640680F2149054840012149052B
:10DAD000084000280FD000BF0846BE4988600020DB
:10DAE000C86000BF032C02D11920400101E07D2055
:10DAF000400106460EE000BF01204005B549C86060
:10DB00000020886000BF032C01D1C82001E0FF2065
:10DB100091300646B048047064213046FDF706FB9C
:10DB2000AE4909684843074600223946AC480068B8
:10DB3000FEF780FF0546EDE100BFA548016807201C
:10DB4000800588430F2149050840A24988600020CC
:10DB5000C86000BF084640680F21490548400121C0
:10DB60004905084000280FD000BF08469949886041
:10DB70000020C86000BF042C02D17D20400101E0DC
:10DB80007D204001064623E000BF01204005914969
:10DB9000C8600020886000BF042C16D1FF2091309F
:10DBA00015E0B6E1AAE1A8E195E182E16FE163E168
:10DBB00027E125E123E121E11FE113E1F0E0D9E0D4
:10DBC000C0E0A9E090E05DE014E0FF20913006465F
:10DBD0008148047064213046FDF7A8FA7F4909683E
:10DBE00048430746002239467D480068FEF722FF79
:10DBF00005468FE100BF764801680720800588430D
:10DC00000F2149050840734988600020C86000BFA3
:10DC1000084640680F214905484001214905084050
:10DC200000280ED000BF08466A4988600020C860FE
:10DC300000BF052C01D1C82001E07D20400106462F
:10DC40000EE000BF012040056249C86000208860E6
:10DC500000BF052C01D1C82001E0FF20913006460D
:10DC60005D48047064213046FDF760FA5B4909683D
:10DC7000484307460022394659480068FEF7DAFE55
:10DC8000054647E100BF52480168072080058843E8
:10DC90000F21490508404F4988600020C86000BF37
:10DCA000084640680F2149054840012149050840C0
:10DCB000002806D000BF0846464988600020C8609A
:10DCC00007E000BF012040054249C860002088608D
:10DCD00000BF414804704148002201684048006884
:10DCE000FEF7A8FE054615E100BF39480168072088
:10DCF000800588430F214905084036498860002087
:10DD0000C86000BF00BF01204005C86000208860D7
:10DD100000BF31480470FDE000BF2E494868012172
:10DD2000890581432B4A9160012189050140D16019
:10DD300000BF2A480022016829480068FEF77AFEE1
:10DD40000546E7E000BF2349486801218905814372
:10DD5000204A9160012189050140D16000BF1F4820
:10DD600000688200811800221D480068FEF762FEEC
:10DD70000546CFE000BF1749486801218905814366
:10DD8000144A9160012189050140D16000BF134808
:10DD90000022016812480068FEF74CFE0546B9E013
:10DDA00000BF0C494868012189058143094A9160F7
:10DDB000012189050140D16000BF08480068820048
:10DDC0008118002206480068FEF734FE0546A1E0EF
:10DDD00098200020000500508C200020902000207A
:10DDE0004C29020000BF0F2040054C49C8600020AC
:10DDF000886000BF4A4804708CE000BF00BF00BFCD
:10DE000000BF48480068FEF743FE05461120061B88
:10DE1000002E23D0002D21D10120C00542490860E9
:10DE2000012E10D9C821714308466421FDF77EF9FF
:10DE30003E49096848430746002239463948006888
:10DE4000FEF7F8FD054600BF374800680F21490579
:10DE500008403249C860002088600CE000BF3248AA
:10DE600000680F21490508402C4988600020C860DF
:10DE700000BF2D4908604DE000BF0F204005274935
:10DE800088600020C86000BF2548047042E000BFE1
:10DE900007208005214988600020C86000BF00BFBE
:10DEA00001204005C8600020886000BF1C48047045
:10DEB00030E000BF0D204005184988600020C86090
:10DEC00000BF00BF01208005C8600020886000BF3F
:10DED000134804701EE000BF0320C0050F4988608E
:10DEE0000020C86000BF00BF03204005C8600020BC
:10DEF000886000BF0A4804700CE000BF00BF0F201C
:10DF000040050649C8600020886000BF04480470CE
:10DF100000E000BF00BF2846F8BD0000000500502B
:10DF20008C20002050290200982000209020002002
:10DF300070B50246002021E08400124D2C59A40047
:10DF4000114D64192168012484401440002C01D033
:10DF5000032400E00024234603252D040C46AC4393
:10DF600021461C0421430524240707252D0264199A
:10DF70008500044E7559AD006151401C0428DBD367
:10DF8000002070BD582902000007005010B504465B
:10DF900020780221FFF7A6FB10BD0000F8B505466A
:10DFA000164A17490320FFF7A5FC044600BF264682
:10DFB000002E07D000BF13A2832189003046FEF750
:10DFC0002DFC00BF00BF69460020FFF719FB044687
:10DFD00000BF2646002E06D000BF0AA20D493046DB
:10DFE000FEF71CFC00BF00BF68460078022801D184
:10DFF000012000E000202870F8BD0000F5D70100E6
:10E00000CD0C00002E2E5C2E2E5C2E2E5C6D6169D8
:10E010006E2E63000F0200000021C9438200054BF1
:10E020009950042804DB0B46011F024A4032535426
:10E0300070470000C827002001468800014A105898
:10E0400070470000C8270020F7B585B00B460020B8
:10E05000C0430490002A01D0002000E00420039077
:10E06000002A01D0042000E00820029003991EE05D
:10E070008800124C2058401C002817D10846059CE7
:10E080000093019246B20D4D20352E5585000B4E62
:10E09000009B7351019A002A04D166B2051F074FF5
:10E0A00040377E5500BF48B2049003E0491C0298F7
:10E0B0008142DDD300BF049808B0F0BDC82700201E
:10E0C0000146014840567047E8270020F0B587B068
:10E0D0003E480078142148433C49091D4418E7682C
:10E0E0000C21A06848433A494018008906900C2149
:10E0F000A068484336494018408905900C21A06823
:10E100004843334940184068049003F061F80146E1
:10E1100002903846FDF70AF8002901D1012000E0FD
:10E120000020039005990698484304994618608892
:10E13000C019A188451800202649086003980028C6
:10E1400004D003F045F8618888420AD0039800287B
:10E1500004D0B54202D1A088002802D0A0680328CC
:10E160000CD103F035F8014602903846FCF7DEFF8B
:10E1700019490860032003F05BFC24E003F028F851
:10E180000190A188C8190199FCF7D0FF88081349AC
:10E19000086003F01DF8014601902846FCF7C6FF11
:10E1A000002901D1012000E000200290B54206D0F4
:10E1B0000298002803D1B1B2A8B203F0B7FE022042
:10E1C00003F036FC00BF07B0F0BD00002C28002093
:10E1D000F828002014210020182100201021002000
:10E1E00010B508480078142148430649091D441811
:10E1F0002078042802D000F0A5F801E003F00AFE20
:10E2000010BD00002C28002010B50F480078142104
:10E2100048430D49091D441860880C49086020785E
:10E22000012804D0032805D0042809D105E003F013
:10E23000F1FD06E0FFF74AFF03E004F044FA00E0D6
:10E2400000BF00BF10BD00002C28002024210020AA
:10E2500010B503484078002801D0FFF7D5FF10BD66
:10E260002C2800200023142141430C4A535414212C
:10E27000414389184B8002231421414389188B6044
:10E280000023142141438918CB601421414389188C
:10E290000B611421414389188B807047302800207E
:10E2A000FFB581B0064617461C4840780A2830D092
:10E2B0001A4800781949497844180A2C00D30A3CB6
:10E2C000142060431549091D0E5414206043401862
:10E2D0000761142060434118029805C8CA6088602D
:10E2E000142161430D4A121D891804984880142195
:10E2F000614389180A988880101F4078401C111FBC
:10E30000487007480078002801D1FFF77DFF0025FD
:10E3100000E00425284605B0F0BD00002C280020B0
:10E320000C21002010B50020054908704870002419
:10E3300003E02046FFF796FF641C0A2CF9D310BDBA
:10E340002C28002010B50848007814225043064AB3
:10E35000121D81180020FEF7C5FA00F007F8002012
:10E3600003F066FB10BD00002C28002010B5094901
:10E370000878FFF777FF07484078401E0549487046
:10E3800008460078401CC0B208700A2801D100205D
:10E39000087010BD2C280020FEB51F48006800281A
:10E3A00036D01D480068056803F076F901901B48D7
:10E3B00004682146019803F0E5FDC61C1848007862
:10E3C000002801D103F07AF9AE4201D2284600E0DC
:10E3D000304604192402240A204603F057F903F0BA
:10E3E0005BF900900199009803F0CCFDC71C204612
:10E3F000019903F0C7FD874209D903F04DF907469B
:10E4000003F044F92F20FCF765FE03F05DFF01E007
:10E4100003F072F9FEBD0000482100204C210020CD
:10E420006021002001460888062808DB0888192298
:10E43000D201904205DD0888104A904201D00720A1
:10E4400070474888062808DB48881922D201904284
:10E4500005DD4888094A904201D00720F0E7088886
:10E46000064A904208D04888904205D008884A88D9
:10E47000904201DD0720E3E70020E1E7FFFF000015
:10E48000FFB581B006460D4614462088801D0499CC
:10E49000884202D90C2005B0F0BD3046FFF7C2FF1C
:10E4A000074600BF002F01D03846F4E700BF052023
:10E4B000218868542088401C2080122021886854BC
:10E4C0002088401C208022885119308804F0F2F8FE
:10E4D00021884018208022885119708804F0EAF8B9
:10E4E0002188401820800020D5E7000010B50446A0
:10E4F00000BF03A2D7212046FEF790F900BF10BD50
:10E500002E2E5C2E2E5C2E2E5C6D61696E2E6300AD
:10E5100030B587B01C216846FCF74BFE0020009008
:10E520000520C00301900F200004029003216846DB
:10E5300001730021C18101740A4805900A480690C0
:10E540006846FEF7EDFE044600BF2546002D06D0C6
:10E5500000BF06A2EE212846FEF760F900BF00BF0B
:10E5600007B030BDD50A0200EDE401002E2E5C2E6E
:10E570002E5C2E2E5C6D61696E2E630038B51F48CF
:10E5800001F0D6FB002829D11D48007800280AD0C8
:10E590001C484069002820D000200090194841699B
:10E5A0006846884719E018480078002802D11548C5
:10E5B000456801E013488568002229461348006831
:10E5C000FEF738FA0446002C07D00E488069002870
:10E5D00003D00C488169204688470AE00948406911
:10E5E000002806D001200090064841696846884707
:10E5F00000BF00200249087038BD0000DC20002068
:10E60000E42000203C260020D82000208829020099
:10E6100010B5012200210846FFF72CF9044600BF7F
:10E62000002C03D0072C01D0204610BD00BF0722CC
:10E6300002210120FFF71EF9044600BF002C03D081
:10E64000072C01D02046F0E700BF04220221002061
:10E65000FFF710F9044600BF002C03D0072C01D0AF
:10E660002046E2E700BF0020DFE7000070B5034668
:10E670000C460820002115E00C254D430B4EAD192A
:10E68000AD7A2540002D0CD0094DAB4205D00C25AC
:10E690004D43AD192D899D4202D11160002003E048
:10E6A0000520491C0029E7D000BF70BD9827002035
:10E6B000FFFF000010B5044601210C2060430A4A08
:10E6C00080188172891E0C20604380180181FF210F
:10E6D0000C2060438018C1720C2161438818072107
:10E6E000FCF767FD10BD00009827002010B500BFA3
:10E6F000EFF30580C105C90D00291FD00A46103A65
:10E7000050B200280CDA0E4B0407240F083CA40872
:10E71000A4001B598407E40EE3401B069B0F0BE08B
:10E72000084B032424021B198408A4001B598407E6
:10E73000E40EE3401B069B0FD8B210BD0420FCE79B
:10E740001CED00E000E100E010B51C480068082165
:10E75000084000282FD11A480068401C184908605A
:10E7600018480068002803D0042003F0BBFB24E015
:10E7700001F042FB002803D0022003F0B3FB1CE0B1
:10E7800011480068002813D00C480078C007C00F5B
:10E79000002809D109480068012108430749086099
:10E7A000002003F09FFB08E0032003F09BFB04E044
:10E7B00003F06CFB01E003F079FB10BD2821002081
:10E7C00018210020102100201421002010B50C4831
:10E7D00000680821084000280FD10948006802217C
:10E7E0000840002805D00648006801210843044974
:10E7F0000860022003F076FB01E003F057FB10BD38
:10E8000028210020F8B5002535E0E8001C490968FA
:10E81000441821780120884006461A480068304094
:10E82000002826D017480068B043164908602078B1
:10E8300001F088FE074621780120884012490968C6
:10E840000840227839469140884211D160780128E9
:10E8500000D100E00020784001214840009060682D
:10E86000002804D0009BD9B220786268904700BF8E
:10E8700000BF681CC5B2054800788542C5DBF8BDFD
:10E880002C2100203C2100203821002030210020B4
:10E89000FEB504460E46A1786A46284802F0A6FB5B
:10E8A0000546002D49D160780C2148432449401881
:10E8B000807A40210840402801D0022E01D1214F0A
:10E8C00004E0012E01D1204F00E0204FA0781C224F
:10E8D00050431F4A811800231C226846B84705464A
:10E8E000002D1AD1022E18D060780C21484314490B
:10E8F0004018807A4021884361780C225143104AA5
:10E900008918887260781C225043124A81181C238F
:10E910001A466846B847054600BF022E0DD020783B
:10E920000C2148430C494018807A80000B490A5852
:10E93000214668469047054600BFFEBDE8200020FE
:10E9400098270020AD15020081140200A91D0200C5
:10E950009426002058270020A42700208C2902009C
:10E96000F8B505460E461B4F00242EE01C206043E0
:10E9700019494018807EFF2826D13078022814D00B
:10E980001C2060434018807E022188431C21614383
:10E99000114A891888761C2161438918084610306D
:10E9A00007223146FCF7ECFB0BE01C2060430A49D0
:10E9B0004018807E410849001C206043064A8018A8
:10E9C00081762C70002702E0641C072CCED300BF98
:10E9D0003846F8BD4380000094260020F8B505466F
:10E9E0000E4617460520009000241BE0002D06D19E
:10E9F0001C2060430E494018008BB8420DD0002DFA
:10EA00000FD01C2161430A4A89180846103007229A
:10EA10002946FCF7D9FB002803D134600020009080
:10EA200002E0641C072CE1D300BF0098F8BD000091
:10EA3000942600207CB50546A9B26A46084802F033
:10EA4000D5FA0446002C09D17421684602F020FB57
:10EA50000446002C02D1284602F036FA20467CBD3E
:10EA6000E8200020F8B506460F46144600BF2546AC
:10EA7000002D07D000BF05A2FF21BA312846FDF7BF
:10EA8000CDFE00BF00BF0020F8BD00002E2E5C2E82
:10EA90002E5C2E2E5C6D61696E2E63007FB505467F
:10EAA000039502F09BFB044600BF2646002E07D0CC
:10EAB00000BF2AA2FF21D4313046FDF7AFFE00BFD0
:10EAC00000BF03A800F08CFB044600BF2646002EC2
:10EAD00007D000BF21A2FF21D7313046FDF79EFEAF
:10EAE00000BF00BF052101A80130FCF762FB6846AA
:10EAF000407941084900491C68464171407902212A
:10EB00008843014668464171407970218843014637
:10EB1000303168464171407980218843014668461A
:10EB20004171072181711021C171104800900121AC
:10EB30006846017169460E4800F0FEFC044600BFBD
:10EB40002646002E07D000BF04A2FF21E531304643
:10EB5000FDF764FE00BF00BF7FBD00002E2E5C2EBF
:10EB60002E5C2E2E5C6D61696E2E630065EA0100DD
:10EB700080200020F0B591B00446FF200F900026C1
:10EB80000020099000BFF9480078002801D111B099
:10EB9000F0BD00BF00BFF6480068002800D1F6E7CE
:10EBA00000BF0EA800F00EFB054600BF2F46002F49
:10EBB00006D000BFEF4AF0493846FDF72FFE00BFF0
:10EBC00000BF00200A900025201D0C902C216846D3
:10EBD0008186FF2108A8817600210176002010900F
:10EBE0002088102813D0A08810AA0221FFF73EFD2C
:10EBF0000546002D0BD10C2110984843DF494018E1
:10EC0000C17A08A881761098C1B208A841762088F8
:10EC100019287DD008DC10280DD011287ED01328AB
:10EC200078D0142877D1B7E01A2875D01E2874D070
:10EC30005228F7D18DE210AF3A460121D048FFF7B4
:10EC400015FD08900898002807D102210C22386889
:10EC50005043CA4A8018817201E004200890089845
:10EC60000546002D53D10126112108A801731098E3
:10EC7000C1B208A84176A1880C2210985043BF4A1F
:10EC80008018018102210C2210985043BB4A801841
:10EC900081720C2210995143B84A881807222146E4
:10ECA0000831FCF76DFAE07D304000280AD0E07DA5
:10ECB0004008B449085CFF280BD0E07D4008085CA0
:10ECC0000F9006E0AE4A0FA920460830FFF786FEF7
:10ECD0000546002D1BD10F98C1B20C22109850434D
:10ECE000A64A8018C1720C2110984843114640185A
:10ECF000807A082108430C22109951439F4A8918B1
:10ED0000887208A90F9888760EA8FEF751FC2FE2AA
:10ED1000FCE003E085E02AE2B8E123E20C21109850
:10ED2000484396494018807A022188430C22109962
:10ED30005143924A891888720C2110984843114611
:10ED40004018807A0821084008280ED10C2110981C
:10ED5000484311464018807A8021084080280FD10E
:10ED600000210EA8FFF794FD0AE008A8807EFF2886
:10ED700006D008A9887E02F0A7F8FF2008A98876A7
:10ED800010210C22109850437C4A80188172012671
:10ED9000122008A90873EBE10C2110984843774929
:10EDA0004018C07AFF2823D1228A0FA90020FFF73C
:10EDB00015FE0546002D1BD10F98C1B20C221098EC
:10EDC00050436E4A8018C1720C2110984843114676
:10EDD0004018807A082108430C2210995143674A51
:10EDE0008918887208A90F9888760EA8FEF7E0FBAC
:10EDF0000C211098484361494018C07AFF2805D07B
:10EE00001C21109848436049401809901C23109910
:10EE100059435E4BCA18A0880023099986DF05462E
:10EE2000A6E1132008A908730C2110984843534900
:10EE30004018807A042108430C22109951434F4A0C
:10EE40008918887201260C211098484311464018F1
:10EE5000C07AFF283ED10C22109850430A468118F0
:10EE60000FA8FFF77DFD0546002D0BD108A90F98CF
:10EE700088760F98C1B20C22109850433F4A8018F0
:10EE8000C17201E00A950126002005900C2110981E
:10EE900048433A494018C07A1C2148433B4941182D
:10EEA00006910021079108911C211098484336498A
:10EEB000401801900020029003900490A08801ABBC
:10EEC0002B4A121D00217FDF0546002D01D00A9537
:10EED00000261AE00C211098484328494018807AEF
:10EEE000402108430C2210995143244A8918887202
:10EEF000162008A90873A08800231A4685217FDF01
:10EF00000546002D01D00A95002631E11848407AC7
:10EF100040084000164948720C2110984843174990
:10EF20004018807A042188430C2210995143134AD7
:10EF300089188872142008A908730126207A0028ED
:10EF400026D00C211098484311464018807A402161
:10EF50000840402809D00C2210995143074A8918CB
:10EF6000C87AFFF767FD207A0A908EE0F42000202F
:10EF7000A4270020302A0200F10900009827002071
:10EF8000FFFF0000F52000205827002094260020D5
:10EF9000607A4007C00F002877D008A8807EFF283D
:10EFA00073D00C21109848437F494018807A08217B
:10EFB00008430C22109951437B4A89188872607B60
:10EFC0008007C00F00280FD008A8807E1C2148436E
:10EFD00076494018807E4108490008A8807E1C229E
:10EFE0005043724A801881760C21109848436E492C
:10EFF0004018C07AFF2848D00C21109848436A492D
:10F00000085C022820D00C23109A5A430B46D118D2
:10F0100008AA927E1C235A43644BD2181046103023
:10F020000722FCF7ADF808A8807E1C2148435F4901
:10F030004018807E0221884308A9897E1C22514302
:10F040005A4A891888761CE01C2110984843584970
:10F050004018418A08A8807E1C225043534A8018D9
:10F06000018308A8807E1C21484311464018807EF9
:10F070004108490008A8807E1C2250434B4A801852
:10F08000817601210EA8FFF703FC71E0207A0009C8
:10F0900001283DD1207A0007000F012838D10C212A
:10F0A0001098484340494018807A082108400828B1
:10F0B0002ED12422109951433E4A891808181A214A
:10F0C000FCF777F8162008A908730C21109848431C
:10F0D00035494018807A202108430C221099514369
:10F0E000314A891888720C211098484311464018FB
:10F0F000807A402108430C22109951432A4A8918EA
:10F1000088722D48407A022108432B4948721CE03E
:10F110000C211098484324494018807A80210843E4
:10F120000C2210995143204A89188872152008A989
:10F1300008732148807A8000204A11580EA8884719
:10F140000546002D01D01E480A9000200A90012695
:10F150000EE01948807A8000184A11580EA8884796
:10F160000A9005E0132008A90873012600E000BFFB
:10F1700000BF002E16D00BA90EA80A9AFDF7A4FB1B
:10F1800008A8007B12280DD100BF0C21109848431D
:10F1900005494018807A012802D01098FFF78AFAB2
:10F1A00000BF00BF00BFF2E4982700209426002093
:10F1B0005827002074270020A4270020AC29020033
:10F1C000418000000146002901D104487047FF201A
:10F1D000087048708870C8700020F7E70E80000043
:10F1E0007FB50646002E02D1374804B070BD00241A
:10F1F0000FE000BF00210C206043344A11500C2066
:10F200006043801841720C2060438018817200BFF7
:10F21000641C002CEDD0002403E02046FFF74AFADE
:10F22000641C002CF9D024212948FBF7C2FF0024DC
:10F2300006E0204601F048FEFF2026490855641CE0
:10F24000072CF6D37421684681810721C1812248A9
:10F250000290224902A802F083F80546002D30D121
:10F2600001201F4908703078002821D100241CE0BB
:10F27000A1B26A46194801F0B9FE0546002D0FD12A
:10F280001C216143174A881800231C22694601F09B
:10F29000E9FF0546002D07D000201149087006E05F
:10F2A00000200F49087002E0641C072CE0D308E03E
:10F2B0006A469089D289504381B2084801F0E8FE3D
:10F2C0000546284691E700000E800000A427002094
:10F2D00074270020F5200020E9F20100E82000203A
:10F2E000F420002094260020FFB593B01D4600BFF7
:10F2F00085480068002801D117B0F0BD00BF1C98F8
:10F30000742800D9F8E7012009900FA8FFF75AFFE9
:10F31000064600BF3746002F06D000BF7B4A7C4917
:10F320003846FDF77BFA00BF00BF002108A801772F
:10F3300010A801700E951C980D90002712E0B9B22C
:10F340000AAA744801F052FE0646002E09D108228E
:10F350000AA91398FBF738FF002802D108A98F7774
:10F3600002E07F1C072FEAD300BF08A8807FFF2898
:10F3700079D0149803280AD11C98742803D120202E
:10F3800010A908709AE0402010A9087096E0624920
:10F39000681A1C21FBF7CAFE0446072C1DD20CA8D4
:10F3A00011901598002810D108A9887F012181406B
:10F3B0005A4A12681140002901D0012100E00021C1
:10F3C000002902D10020099078E008A9887F03F085
:10F3D0007FF9202010A9087070E05149681A1C219B
:10F3E000FBF7A4FE0446002C1BD10CA81190202191
:10F3F00010A8017008A8447700200590494906919B
:10F400001C20604346494018019008A8807F1C21B9
:10F41000484341494018029001A80E9020200D90C9
:10F420004CE04149681A2421FBF780FE0446002C79
:10F430001AD1302110A8017008A844770121C177A2
:10F440000C20604339494018807A02210840022884
:10F4500034D008A9497F24225143334A88182421F3
:10F46000FBF7A7FE2AE04DE000200990402010A9FC
:10F4700008702F48854204D1032014900120099080
:10F480001CE008A8807F80002A490858A84215D1AE
:10F49000012009900CA8119000200CE008A98A7F97
:10F4A0000C214143214BC918C97A8A4202D108AACA
:10F4B000507702E0401C0028F0D000BF09980128D6
:10F4C00020D11498032806D110A9087803210843F5
:10F4D00010A908700FE01498022806D110A9087826
:10F4E0000121084310A9087005E010A9087802213D
:10F4F000084310A908700CA8119010A90FA8159A1C
:10F50000FDF7E2F900BFF7E6A4270020302A020049
:10F51000A1050000E820002094260020F020002013
:10F5200058270020B02700207427002098270020AB
:10F53000BC2902007826002070B505460C4600BFA5
:10F5400029480078002801D1284870BD00BF002D4F
:10F5500002D12648801DF8E7002C02D12348801DE7
:10F56000F3E72068002802D12048801DEDE72048FD
:10F570000068002834D11E49206808600522611DFA
:10F580001B48001DFBF7FCFD2079194988720846CD
:10F59000007A4008400008720846007A0221884339
:10F5A000801C134908720846007A042188431049D8
:10F5B00008720846C07940084000401CC8710846DF
:10F5C000C07902218843801C0949C8710846C07966
:10F5D000042188430649C87100202870002601E0F4
:10F5E000024E361F3046B0E7F420002008800000AD
:10F5F000A4270020014614480078144A127890424B
:10F600001DD011480078401C0F4A10701046007839
:10F61000022801D1002010700B48007880000C4AAD
:10F62000105808600B4A086812688018094A106070
:10F63000104600680002000A106001207047002098
:10F64000086000BFFAE7000058210020592100207F
:10F65000502100204C21002010B50D4800680821E1
:10F660000840002810D10B480068401C0949086078
:10F6700000F0C2FB002802D1FEF7B2FD06E006480A
:10F68000007802F0D5F901E000F0AAFD10BD0000FD
:10F6900028210020182100200C210020F0B503466D
:10F6A000002420E0134E306806689E4203D90668A5
:10F6B000F61A06601BE006689B1B066834190026D4
:10F6C00006600C4E35680B4FC6693E60C668002E5A
:10F6D00008D00E193602360A4660C668866016687B
:10F6E000C661156000BF034800680028DAD100BF7A
:10F6F000F0BD00004821002030B504461088C01C31
:10F70000984201D90C2030BD022015884855108838
:10F71000401C10800120158848551088401C10801E
:10F7200015884C551088401C10800020EBE738B538
:10F7300000200090684601F041FC0446082C03D0EC
:10F74000002C01D0012038BD082C07D1684600F0FC
:10F7500079F80446002C01D00020F4E70098002836
:10F7600001D00120EFE70020EDE7000010B50446CE
:10F77000002C02D0112C08D100E00AE006480068F5
:10F78000082108430449086003E02046FDF7C2F859
:10F7900000BF00BF10BD00002821002010B50C489C
:10F7A0000068401C0A49086003280DD00948007809
:10F7B000022804D00748007802F03AF907E006482A
:10F7C000007802F08FFB02E00D20FDF7A3F810BDDA
:10F7D0001C2100200C2100200D21002010B50A481A
:10F7E0000078012804D0022808D0032809D102E0BB
:10F7F00002F016FB06E0FFF72FFF03E002F066FBC6
:10F8000000E000BF00BF10BD0C21002070B5044611
:10F81000204628DF0546FFF7A9FF70BDF8B504466E
:10F820000D46164632462946204629DF0746FFF791
:10F830009DFFF8BD70B504460D46E0B2FDF794F9A2
:10F84000204670BD0146002901D1032070470248BF
:10F85000406D08600020F9E7502900203EB500BF48
:10F860006846007801090901491C00916846007842
:10F87000F02188431030009000BF112216A1684685
:10F880007CDF044600BF2546002D06D000BF17A22E
:10F89000A5212846FCF7C2FF00BF00BF0020019051
:10F8A0000290502168468180A021C1800021018101
:10F8B000FF219131418101A87ADF044600BF25462E
:10F8C000002D06D000BF09A2AF212846FCF7A6FFF5
:10F8D00000BF00BF3EBD00004F757243686172619A
:10F8E0006374657269737469630000002E2E5C2E68
:10F8F0002E5C2E2E5C6D61696E2E63000146002029
:10F900007047024600207047024600207047000002
:10F91000F8B50546002700200090002668782421CD
:10F920004843334940184068002827D068780C21A4
:10F93000484330494018807A8021084080281DD1F2
:10F9400068780C2148432B494018807A40210840B0
:10F95000402813D068782421484325494018074699
:10F96000083768782421484321494018808880B2AC
:10F9700000906878242148431D490E5869780C226C
:10F9800051431C4A8918088933463946009AA9DF31
:10F9900004460B2C0BD1012669780C225143154AE1
:10F9A0008918088933463946009AA9DF0446002C95
:10F9B00000D0114C012E18D169780C2251430D4A08
:10F9C000891808890D4A0C21A7DF0446002C0CD0A9
:10F9D0000B48844208D0082C06D0801C844203D0F7
:10F9E000112C01D0002400E0034C2046F8BD00009B
:10F9F000742700209827002041800000FFFF0000AE
:10FA00000230000070B505460C466178242251434F
:10FA10000D4A881838232422294601F023FC064683
:10FA2000002E0FD1607824214843074940184068D0
:10FA3000401C002806D10021607824225043024A4D
:10FA400080184160304670BD74270020F3B589B03E
:10FA50000C4603271A20089061780C2251432E4A45
:10FA6000891808893B4608AA01A9AADF0646002E84
:10FA70004FD1617824225143284A8918084608301A
:10FA800069460A8C01A9FBF79FFB002812D1607818
:10FA90000C21484320494018807A0221084002285E
:10FAA00037D06178242251431C4A88182421FBF75F
:10FAB00080FB2EE0607824214843184940184068B4
:10FAC000002801D0164D00E0164D607824214843EF
:10FAD00012490F506946098C6078242250430F4A1E
:10FAE000801841606178242251430C4A89180846E5
:10FAF000083069460A8C01A9FBF742FB6078242292
:10FB00005043064A8118382324220998A8470646FC
:10FB100000BF00200BB0F0BD982700207427002004
:10FB2000AD1502008114020070B505462846FFF7A6
:10FB3000EFFE0446002C02D100BF00BF0446204661
:10FB400070BD70B505460E4631462846FFF75AFF90
:10FB50000446002C02D100BF00BF0446204670BD01
:10FB600070B505460E4631462846FFF76FFF04463E
:10FB7000002C02D100BF00BF0446204670BD00002B
:10FB8000F8B505460F460120A8400446184800680D
:10FB9000FCF77EFF0646002E00D0F8BD1548006831
:10FBA000204000281DD1284600F0CCFC002805D0BC
:10FBB0001148006820431049086004E00E480068BE
:10FBC000A0430D4908600B480068204309490860BC
:10FBD00000220A48016806480068FCF72BFF064629
:10FBE00004E004480068A0430249086000BFD4E76D
:10FBF000282A02003C210020382100203421002046
:10FC000010B51848006808210840002826D100F0E7
:10FC100049F900280CD000201349086011480068F9
:10FC2000012108430F490860002002F05BF917E04A
:10FC300000F0E2F8002806D000200B4908600220FE
:10FC400002F050F90CE009480068002803D00320B6
:10FC500002F048F904E002F019F901E002F026F997
:10FC600010BD0000282100201021002014210020B8
:10FC7000F8B529480078002800D1F8BD2748006869
:10FC8000002801D1012000E000200546244800683A
:10FC9000002801D1012000E00020064600BF002D11
:10FCA00014D1684652DF0446052C01D101250CE031
:10FCB000002C06D000BF1B4A93212046FCF7AEFD66
:10FCC00003E0164900980968884700BF002E1AD142
:10FCD00015480088009069461448006861DF0446B2
:10FCE000052C01D101260DE0002C06D000BF0D4AE5
:10FCF000B2212046FCF792FD04E00C480068084958
:10FD00000968884700BF002D02D0002E00D000E017
:10FD1000C5E700BF00BFB0E77821002088210020A0
:10FD2000842100207C2A0200802100207C210020E8
:10FD300001464888064A1288904206DB4888044AF1
:10FD40005288904201DC012070470020FCE700004F
:10FD5000D02000200C48008CC0B2012812D10A48E3
:10FD6000808C0007000F00280CD10748806AF02122
:10FD70000840402806D10448C06A0840002801D144
:10FD8000012070470020FCE7C00F00F01948008CEC
:10FD9000C0B201282CD11748808C0007000F002822
:10FDA00026D11448806AF0210840002806D1114865
:10FDB000C06A0840002801D1012070470D48806AC0
:10FDC000F0210840102806D10A48C06A08400028DF
:10FDD00001D10120F1E70748806AF021084030286E
:10FDE00006D10448C06A0840002801D10120E4E798
:10FDF0000020E2E7C00F00F0F8B5124800781421A7
:10FE000048431049091D4518EF6801F0E1F90090D9
:10FE10006988C919AA888918481E0099FBF786F9CC
:10FE2000064609480068B04207D307480068B04258
:10FE300005D106480068002801D1012400E0002413
:10FE40002046F8BD2C280020182100201421002075
:10FE50001348008CC0B201281FD11148808C0007C4
:10FE6000000F002819D10E48806AF0210840A02810
:10FE700006D10B48C06A0840002801D10120704714
:10FE80000748806AF0210840D02806D10448C06A9B
:10FE90000840002801D10120F1E70020EFE7000031
:10FEA000C00F00F0F8B510480078142148430E49FF
:10FEB000091D4518EE6801F08BF9009069888919D1
:10FEC000AA888918481E0099FBF730F907460748A9
:10FED0000068002805D006480068B84201D1012416
:10FEE00000E000242046F8BD2C280020142100202A
:10FEF0001821002001468807800F002801D1012029
:10FF000070470020FCE730B504461088C01C9842BA
:10FF100001D90C2030BD0220158848551088401C9E
:10FF200010801C20158848551088401C1080012C1A
:10FF300006D0022C08D0032C0AD0042C10D10BE0E0
:10FF40000020158848550DE001201588485509E026
:10FF500002201588485505E003201588485501E022
:10FF60000720D7E700BF1088401C10800020D1E791
:10FF700010B5044605480078C007C00F002803D01C
:10FF800003480078FDF720FD10BD000094200020FC
:10FF90008C200020F8B521480068009020480678A1
:10FFA0002EE0F0001F4909684418257824E0182045
:10FFB000684361680F18681CC5B2A078A84200D1D8
:10FFC00000253878022802D0032812D103E078688F
:10FFD00002F084F80EE007E010490868002101747F
:10FFE0000E4AC169116000BF0C4800680028F3D1B7
:10FFF00000E000BF00BF00BF6078A842D7D100BFBB
:020000040002F8
:100000003046711ECEB20028CBD10448016800985A
:10001000814201D00120F8BD0020FCE748210020EA
:100020004021002044210020FEB506463C480068DF
:1000300001903C480078009063E00098C0003A4985
:100040000968451856E0002E02D03446E66924E0DF
:100050002978182359436A6850182978491C29704F
:100060002978AA78914201D1002129704468017849
:10007000012902D1217C002900D03BE08168616028
:10008000C168A1600169E1604169A16127490978FE
:10009000002901D00021616000BF2549606809681E
:1000A000401A0002000A2349884208D220496068A9
:1000B000096801F067FFA168401820600FE01C4844
:1000C0006168006801F05EFF0746A068B84203D986
:1000D000A068C01B206001E00020206000BF00205D
:1000E0006060A060012020740020E061204601F0E3
:1000F000BFFF00BF002EA6D1287869788842A2D120
:1001000000BF0098411EC9B20091002895D1044853
:1001100001680198814201D00120FEBD0020FCE76A
:10012000482100204021002044210020612100209E
:100130004C210020FFFF7F0008B502F067F916A0F0
:10014000FBF7E8FC02F0C6F86846FDF727FFFDF76D
:10015000A3F968460078FEF7A1FCFFF77FFB01F0EA
:1001600025FCFCF795FAFEF7D3F9FCF73BFD0320DD
:10017000FCF778FF044600BF2546002D06D000BFDF
:1001800012A216492846FCF749FB00BF00BF00BF7A
:1001900000F0FAFEFCE700001B5B324A1B5B3B48A9
:1001A0004368617261637465726973746963205432
:1001B00075746F7269616C2C20436F6D706C65741F
:1001C000656420436F64650D0A0000002E2E5C2ECE
:1001D0002E5C2E2E5C6D61696E2E63006502000040
:1001E00010B50548006808218843034908600348A2
:1001F000007801F01DFC10BD282100200C210020FA
:10020000FFB581B005460E461446A888871C208895
:10021000801CC1190498814202D90C2005B0F0BDA0
:10022000FE2F01D90C20F9E7781C21887054208812
:10023000401C2080FF20218870542088401C208092
:1002400022889119288802F035FA218840182080E8
:10025000A88800280EDDA868002801D10720DDE766
:10026000AA8823889819A968FAF78AFF2088A9889C
:10027000401820800020D1E7FFB583B005460F4627
:1002800014462878012805D16878002802D1072073
:1002900007B0F0BD2088801C0699884209D82878CC
:1002A000012808D12088801C69784118069881426D
:1002B00001D90C20ECE721880698401A801E86B2EE
:1002C00001962188891CC81901A97DDF029000BF11
:1002D0000298002801D00298DAE700BF28780228A7
:1002E00006D168468088B04202DC092000900BE00D
:1002F000082000902878012805D16878B04202DCF7
:100300006878019000E0019668468088FE2801D94F
:100310000C20BDE768468088401C218878542088DE
:10032000401C20802188009878542088401C208020
:10033000218868468088081820800020A8E70146A8
:100340000020704702460020704702460020704798
:1003500070B504460D4629462046FBF7F7FA00BF64
:10036000E106C90E012088400549086000BF00BFB2
:10037000E106C90E012088400249086000BF70BD37
:1003800080E200E000E100E0FEB505460E462846AA
:1003900000F0D6FD002820D02846FDF791FE001F72
:1003A00028490F5CBC11032C0CD100BF2648006902
:1003B0000121A9400840002801D0032000E00220CC
:1003C000019005E0012C01D1022000E00320019002
:1003D0002846019900F091FA32E0284600F0BCFD71
:1003E00000282DD02846FDF76BFE0446A000FF3004
:1003F000013080B20190204614495122120189181F
:100400008200895801221143104A51231B01D2183E
:100410008300D15000BF019800F0A0FA002E0ED04A
:100420002846FDF74DFE0090FDF706FE0746002F1B
:1004300004D00121A140084600F0A4FA00BF00BF8B
:10044000FEBD0000082800200005005000600040AC
:10045000F7B584B004460E4600200390204600F015
:1004600061FD002802D00820039060E0F278204669
:100470000699FDF7E9FD0546681C002854D0B078C0
:10048000002810D000BFA1002A4A8918096802225A
:100490009143084605210907072212028918A20084
:1004A000885000BF0BE07778002000903B46024662
:1004B00001460190204600F0E1F900BF00BFF0784E
:1004C000002826D037781C48512109014018A9007E
:1004D00040581A4908401849512212018918AA00A7
:1004E00088501548512109014018A900415820029F
:1004F0001F22120210403A0403231B041A40104327
:1005000001430D48512212018018AA00815000BFFA
:100510000CE0281F0A49085C31788901084342B27F
:10052000281F07490A5401E00420039000BF0398E4
:1005300007B0F0BD0007005000600040FFE0FCFF86
:1005400008280020014600BF05480069C840C007D0
:10055000C00F002801D0012070470020FCE70000F8
:100560000005005010B512480079002801D008207D
:1005700010BD002404E0204600F0FEFC601CC4B264
:10058000202CF8DB002404E02046FDF745FD601C2C
:10059000C4B2082CF8DB03210620FFF7D9FE0120A6
:1005A000C00700F0EFF90121014801710020DFE7E9
:1005B0000828002003480079002801D00120704756
:1005C0000020FCE70828002070B504460D461F48AF
:1005D000C07E002801D0082070BD002C00D11C4C2A
:1005E0002046FCF701FB194845601849206908605E
:1005F00008464068002814D0267FFF211D31154889
:1006000000F0D8F9FF214531124800F0D3F9124922
:10061000104800F0E0F931460220FFF799FE00BFD4
:1006200000BF00BF00BF04200A490522120289183A
:10063000086000BF00BF00200449C87508768875AF
:100640000120C8760020887600BFC5E7102800206A
:10065000E0290200002000408000020070B504463E
:100660000D46002617484068002804D081218900E3
:10067000154800F0ABF91348C07D00280FD0114891
:10068000007E00280AD00F484068002804D081214D
:1006900089000D4800F09FF9112070BD0126002E41
:1006A00007D10848C575C460002006494876087619
:1006B00002E004480461057632462946204600F0EF
:1006C00013F8EAE7102800200020004010B5054884
:1006D000807E002804D101F07BF801200149887652
:1006E00010BD000010280020F8B516462C48807E6A
:1006F000002803D1002E01D101F06AF82848406893
:10070000002845D1FF214531264800F053F900BFAC
:1007100000BFFF212531234800F044F90546FF21A1
:100720000931204800F03EF90746FF2145311D48B8
:1007300000F038F90446002F03D1002C01D1002D20
:10074000E7D0002D01D1002C00D007E001F000F827
:100750001348C07D1249497E8842D9DC00BF002081
:100760000F49C875002D01D00320F8BD002C01D021
:100770000F20FAE70A48807E002804D000210948AB
:1007800000F03AF903E00421064800F035F904E0EE
:1007900081218900034800F01EF90020E5E70000F0
:1007A000102800200020004070B504460D4600F0DF
:1007B0005BF8002801D0112070BD04488575846065
:1007C00000200249888200F003F8F5E71028002095
:1007D00010B50024FF211D31214800F0EBF808215D
:1007E0001F4800F009F901F0C3FD1E4840680028C9
:1007F00033D115E000BFFF211D31194800F0D2F8B8
:10080000002805D11748808AFF2101318842F2D1A2
:100810001448808AFF210131884201D001F0A8FDEF
:100820001048808A0F49897D8842E3DB0D48808A21
:10083000FF210131884201D10F240BE000BFFF21CD
:100840001D31074800F0AEF80028F8D00C2104480C
:1008500000F0D2F8002003498875204610BD000042
:1008600000200040102800200348807D002801D08F
:10087000012070470020FCE710280020F0B5059CFF
:1008800055000D439E00354326023543069E36042F
:1008900035430526360707273F02F6198700F5512D
:1008A000F0BDF0B5059C55000D439E003543260272
:1008B0003543069E360435430526360707273F0293
:1008C000F6198700F551F0BD7CB505460C460020B1
:1008D000009023460246014601902846FFF7E1FFBB
:1008E0007CBD1CB504460020009003460122114641
:1008F00001902046FFF7D5FF1CBD10B50522120759
:1009000007231B02D2188300D25803231B049A43E7
:1009100005231B07072424021B1984001A510522F2
:10092000120707231B02D2188300D2580B041A4364
:1009300005231B07072424021B1984001A5110BD2C
:1009400001218140014A916070470000000500507C
:1009500001460148081870470060004010B5044681
:100960002046FFF7F5FF0021016010BD10B50446D9
:100970002046FFF7EDFF0068012800D110BD0020E0
:10098000FCE7000001494860704700000063004038
:1009900001460922D2018A1810680922D2018A1858
:1009A0001060704702465058002801D0012070475F
:1009B0000020FCE700224250704705231B02C318A9
:1009C000996005231B02C3181A61704703221202A3
:1009D000821891607047032212028218516070479A
:1009E000024603200002101840680840002801D089
:1009F000012070470020FCE7012242507047052388
:100A00001B02C318D96005231B02C3185A61704723
:100A100070B50546002D13D0032D14D10220FCF72C
:100A200057FF044600BF2646002E07D000BF07A28E
:100A3000FF211D313046FBF7F1FE00BF00BF03E090
:100A400000F0BCFF00E000BF00BF70BD2E2E5C2E8A
:100A50002E5C2E2E5C6D61696E2E630070B50546AE
:100A60002888102802D0112825D11BE00720FCF788
:100A70002FFF044600BF2646002E07D000BF0FA25E
:100A8000FF2134313046FBF7C9FE00BF00BFA88804
:100A90000E49088000220121C9030D480068FBF7B8
:100AA000C9FF09E00020C0430849088008480068E1
:100AB000FBF7EEFF00E000BF00BF70BD2E2E5C2EE6
:100AC0002E5C2E2E5C6D61696E2E630082200020EC
