:020000040001F9
:10B0000030360020F5B001000FB1010011B1010090
:10B010000000000000000000000000000000000030
:10B0200000000000000000000000000013B101005B
:10B03000000000000000000015B1010017B1010080
:10B0400019B1010019B10100BDBE010019B1010023
:10B0500019B101000000000071B7010019B1010031
:10B0600019B1010019B1010019B1010019B10100B4
:10B0700019B1010019B1010019B1010019B10100A4
:10B0800019B1010091BA010019B1010019B1010013
:10B0900015BE010019B101001DBE010019B101006A
:10B0A00019B1010019B1010000000000000000000A
:10B0B0000000000000000000000000000000000090
:10B0C0000348854600F084FA00480047190602004C
:10B0D00030360020401E00BF00BF00BF00BF00BFD1
:10B0E00000BF00BF00BF00BF00BF00BF00BFF1D165
:10B0F000704700000321094802680A4302600848BB
:10B1000002680A4302600748804707480047FEE795
:10B11000FEE7FEE7FEE7FEE7FEE70000240500404D
:10B120005405004059BE0100C1B0010030B50B46C6
:10B13000014600202022012409E00D46D5409D4211
:10B1400005D31D469540491B254695404019154697
:10B15000521E002DF1DC30BD70B5002425460028BC
:10B1600001DA01244042002901DA01254942FFF7B2
:10B17000DDFFAC4200D04042002C00D0494270BDFF
:10B1800003460B439B0703D009E008C9121F08C000
:10B19000042AFAD203E00B780370401C491C521EAB
:10B1A000F9D27047D2B201E00270401C491EFBD2B6
:10B1B00070470022F6E710B513460A4604461946C2
:10B1C000FFF7F0FF204610BD30B5044600200346CF
:10B1D00000E05B1C934203D2E05CCD5C401BF8D0E6
:10B1E00030BDF0B51FB40646002082B005464024AD
:10B1F000019100901BE0019922460F46304600F075
:10B2000009FA049A059B801A994110D310461946F1
:10B21000224600F0EFF9361A8F41019722460120AD
:10B220000021009F00F0E6F938184D4100902046BB
:10B23000641E0028DFDC019B00982946324607B0D7
:10B24000F0BD0000F0B507460846584087B0C00F73
:10B25000049048000E46590040084908BC1A88412D
:10B2600005D2384631461E4617460B460246580060
:10B27000400810434CD0300D039040055900400D5C
:10B28000490D0590401A0290402872DA18030121F6
:10B29000000B09050843019004980092002805D08E
:10B2A0000199524200208841009201900298402169
:10B2B0000A1A0199009800F09DF905460C466B4664
:10B2C00007CB00F0B8F9C0197141039A0E0D0023A5
:10B2D000D71756401A467A40164344D0049A002A9B
:10B2E0002DD0029A012A039A15DC1205C01A914149
:10B2F00001263605001C7141D20F059ED20700932E
:10B30000019202962A46234600F0B5F907B0F0BD37
:10B3100038463146FAE71605224A0F46B218C01AD7
:10B32000B74101210905001C4F4100187F4111461A
:10B3300018187941E20F10436D19644113E0E207D8
:10B340006D0815436408C2071443039A01261205C9
:10B35000C01A91413605001C7141CE0740083043A8
:10B360004908C01851412A46234600F077F9CDE735
:10B37000FFE7049801224000C117121A00238B41F5
:10B3800004983146C417381AA141EEE730B40124BD
:10B39000E407634030BC55E730B40124E407614062
:10B3A00030BC4FE70000E0FFF0B51FB488B00B9948
:10B3B0000998002448400999C00F4900490809919B
:10B3C000C0070B990090490049080B91099908980A
:10B3D000A64608431CD00B990A98084318D0099830
:10B3E00001244000420D4800410D09982405000346
:10B3F000000B204309900B980003000B20430B9097
:10B4000050181C494018002201901446104605E0CF
:10B41000002001460DB0F0BD032801DA034600E02C
:10B4200003239C46C11A0AAE0AE05F0008ADED5B3B
:10B430004F00F75B7D430027AA187C41491C5B1E27
:10B440006145F2DD410004AB5A522104120C0A435B
:10B45000240C401C0828DFDB0198029000997046FC
:10B4600001910090059B049A0799069800F003F952
:10B47000D0E700000DFCFFFFF0B50C465C4085B046
:10B48000E40FE40703944C00002664085900944636
:10B49000490802460296224321D062460A431ED042
:10B4A0006200570D4A000E032303550D0124024686
:10B4B0002C492405781B1B0B360B401823432643CD
:10B4C000614600901C46501AB44103D30098401CBA
:10B4D000009002E0921800985B41002803DA0020F7
:10B4E000014605B0F0BD002001210905074686464A
:10B4F00011E064461D46141BB54106D36546521B38
:10B50000B341744607430C43A646CD07400849089B
:10B51000284392185B4105460D43EAD11046184373
:10B5200013D06046194650407140084306D060462B
:10B53000101AB34106D20122002306E000220123A3
:10B54000DB0702E00122D243531000987446010544
:10B55000381C6141029C039D0019694100F07EF88E
:10B56000BFE70000FD0300004A0009030123090BA7
:10B570001B0519430A4B10B5520D9A4202DA0020FE
:10B58000014610BD064B34339A4203DC9A1A00F090
:10B5900041F810BD034BD21800F02CF810BD00008C
:10B5A000FF030000CDFBFFFF10B5002904DB0124E1
:10B5B000E40740428C412146002B04DB1C4601235A
:10B5C000DB075242A341994200D1904210BD0000D6
:10B5D000064C0125064E05E0E36807CC2B430C3CE6
:10B5E00098471034B442F7D3FFF76EFD702A02007B
:10B5F000902A020010B5202A04DB0146203A91402F
:10B60000002010BD914020239C1A0346E3401943BB
:10B61000904010BD10B5202A04DB0846203AD040E7
:10B62000002110BD0B46D340D0402024A21A9140E7
:10B630000843194610BD10B5202A06DBCB17084673
:10B64000203A1041C1170B4306E00B461341D0408E
:10B650002024A21A91400843194610BD10B5002BB2
:10B6600008DA0024401C614192185B411A4301D161
:10B670004008400010BDF0B51FB482B005460C0074
:10B6800003D0084600F068FD02E000F065FD2030C0
:10B690000246009021462846FFF7ACFF049B059A1E
:10B6A00004460F4618431143084314D0184610436C
:10B6B0001BD0009840210A1A18460599FFF7AAFFE7
:10B6C00005460E46009A05990498FFF793FF084334
:10B6D00005D0012004E02046394607B0F0BD002027
:10B6E000C11705430E432C43374300990E98630559
:10B6F000401A7905E40A00220C43FD0A0A3002D5FB
:10B7000000200146E9E70105101969410C9C0D9DD7
:10B7100000196941FFF7A2FFDFE770B58C180578C3
:10B72000401C6B075B0F01D10378401C2A1106D126
:10B730000278401C03E006780E70401C491C5B1E1A
:10B74000F9D12B0705D40023521E0DD40B70491CD0
:10B75000FAE70378401CCB1A921C03E01D780D70A9
:10B76000491C5B1C521EF9D5A142D8D3002070BDE4
:10B77000F0B58BB0002700200A90FF20013009901F
:10B780000125002416E0099805F00CFA00280BD0DA
:10B7900000BF704840682840002805D0099805F08F
:10B7A000F9F93846284307466D000998001D80B214
:10B7B0000990641C042CE6D3FF207D3005F0F2F9DB
:10B7C00000280AD0FF207D3005F0E4F90120C007F1
:10B7D000074300BF604800690A903807000F00283F
:10B7E0002AD00125002425E02846384000281FD013
:10B7F00000BF5A48512109014018A10040581F219B
:10B8000009020840000A089000BF5448512109016C
:10B810004018A1004058032109040840000C07907B
:10B82000204602F05BFD064607990898B04700BF26
:10B830006D00641C042CD7D3F80FC00700287DD0FE
:10B84000002008900790401E069000BF002008903E
:10B85000002464E04248005D0590C02105988843BB
:10B8600006463F480057401C002857D00120B040F2
:10B8700006990840002851D0C02105980840801141
:10B880000490304602F032FD029002F027FD039052
:10B890000398002802D1049803283ED10120B0402B
:10B8A00005460498032802D107982843079000BF53
:10B8B00005200007072109024018B1004058032164
:10B8C00009040840000C02900A982840002802D081
:10B8D0000298022806D00A98284000281CD1029815
:10B8E000032819D1049803280FD10298022801D106
:10B8F000032000E0022001903046019905F018F97C
:10B900000898401CC0B2089000BF0398002803D0DC
:10B910003046039A0499904700BF00BF641C042C72
:10B9200098D3089800280ED000BF0B490969084633
:10B930000A99884203D10021089103E008E00A90A7
:10B940000799069100BF0898002800D07EE700BF45
:10B950000BB0F0BD006300400005005000600040E7
:10B960009C280020C206D20E01219140014A11609C
:10B970007047000080E200E0C206D20E0121914033
:10B98000014A11607047000000E100E0C206D20EDB
:10B9900001219140014A11607047000000E200E07F
:10B9A00010B5002819DA1A4A03071B0F083B9B0839
:10B9B0009B00D2588307DC0EFF23A3409A438B07DA
:10B9C0001B0E8407E40EA3401A43114B0407240FF7
:10B9D000083CA408A4001A5118E00E4A03231B02D5
:10B9E000D21883089B00D2588307DC0EFF23A340A4
:10B9F0009A438B071B0E8407E40EA3401A43054BA2
:10BA0000032424021B198408A4001A5110BD00004D
:10BA10001CED00E000E100E010B5002819DA1A4A38
:10BA200003071B0F083B9B089B00D2588307DC0EC3
:10BA3000FF23A3409A438B071B0E8407E40EA34009
:10BA40001A43114B0407240F083CA408A4001A5100
:10BA500018E00E4A03231B02D21883089B00D25819
:10BA60008307DC0EFF23A3409A438B071B0E84073A
:10BA7000E40EA3401A43054B032424021B19840837
:10BA8000A4001A5110BD00001CED00E000E100E030
:10BA900010B5002007490860002106484160816018
:10BAA000C1600020034940390860486006F066FB29
:10BAB00010BD000040110140F7B582B004461646A3
:10BAC00000F000FA1820604348494018007D8007C4
:10BAD000800F02281ED018206043401807691820E4
:10BAE00060434018C068381A451E002D04DA18203B
:10BAF0006043401880684519AE420BDD1820604352
:10BB00003A494018007D8007800F002801D105B018
:10BB1000F0BD2E46002E01D10020F8E70020019054
:10BB200000BF18206043314940180769182060435E
:10BB30004018C068381A451E002D04DA18206043EA
:10BB400040188068451918206043284940188268C9
:10BB5000182060434018C068101AA84201DD28462A
:10BB600009E018206043214940188268182060438A
:10BB70004018C068101A0546B54201DA284600E0B0
:10BB80003046054618216143184A89184A68182129
:10BB90006143164BC918C96850182A460399FFF724
:10BBA000EFFA019840190190039840190390761B11
:10BBB000182060430D494018C0684219182060439E
:10BBC0004018C260182060434018C26818206043C3
:10BBD00040188068824204D1002218206043401837
:10BBE000C260002E9DD1019891E7000074210020D1
:10BBF0000FB438B5044606A800906A462046059959
:10BC000000F004F838BC08BC04B01847F7B59AB087
:10BC10000D46144602A8159040201690002017905B
:10BC20001A9819900020189000BF2E786D1C002ED5
:10BC300000D1DCE0252E74D1002700BF2E78232E02
:10BC400012D02B2E0CD02D2E02D0302E10D103E08E
:10BC5000012007436D1C0CE0022007436D1C08E027
:10BC6000042007436D1C04E0082007436D1C00E01E
:10BC700001E000BFE2E70020129000BF2E78302ED6
:10BC800001DB392E00DD08E06D1C0A2112984843C3
:10BC90003146303940181290F0E700BF0020139071
:10BCA0002E782E2E11D16D1C00BF2E78302E01DB88
:10BCB000392E00DD08E06D1C0A21139848433146F7
:10BCC000303940181390F0E700BF2E7800BF6C2E7B
:10BCD00001D0682E02D12E786D1C00E000E0F6E75E
:10BCE00000BF702E62D008DC252E70D0582E38D0C0
:10BCF000632E09D0642E6FD114E0732E40D0752EC0
:10BD00001FD0782E68D12BE02168081D20600868BC
:10BD100014901498C0B2019015A8019900F0EAF9A6
:10BD20005AE05CE02168081D2060086814901298B1
:10BD3000019700900A2215A8139B149900F0C3F8EC
:10BD40004AE02168081D2060086814901298019745
:10BD500000900A2215A8139B149900F03BF93BE0D0
:10BD600000BF2168081D2060086814901298019790
:10BD70000090102215A8139B149900F02BF92BE0CA
:10BD80002168081D20600868019000BF01980678AE
:10BD9000401C0190002E00D106E0314615A800F0AD
:10BDA000A9F918980028F1DA00BF15E02168081DEC
:10BDB000206008681490002008210B461022009192
:10BDC000019015A8149900F005F905E0FFE7252179
:10BDD00015A800F08FF900BF00BF6D1C03E03146CD
:10BDE00015A800F087F91898002800DB1DE700BFB0
:10BDF000189800280BDD1798002804D002A9179A7C
:10BE00001A98FFF759FE1799189840181890189823
:10BE10001DB0F0BD10B506F09BF810BD70B50C4814
:10BE20000068002811D00A4800688047044600BF17
:10BE30002546002D07D000BF064AFF21673128465E
:10BE400000F088FF00BF00BF01E004F093F970BD6F
:10BE5000E0210020182A020010B504F019FA002889
:10BE600005D0104810494860C8131049886104F093
:10BE7000F3F9002802D001200D49886004F06AFA25
:10BE800000280ED00B480068012807D00A4809494D
:10BE9000086000BF074800680128FBD1C0200549A1
:10BEA000486110BDDFFF07C000050040006C004086
:10BEB0000006004000EC06407593000010B506F047
:10BEC000E1FA10BD7047FFB585B007460E460F9DDD
:10BED0000E9C002E01DA704200E0304603900120F3
:10BEE000049007E007990398FFF720F9039004985E
:10BEF000401C0490079903988842F3D2049908984B
:10BF0000884201D908980490002C06D0002E03DB4B
:10BF100004202840042800D1641E02202840002864
:10BF200002D00898002816D0E807C00F002812D1C8
:10BF3000002C10D008E02021384600F0DBF8F8682B
:10BF4000002801DA09B0F0BD002C04D02046641EA0
:10BF500004998842EFD8002E08DA76422D2138461F
:10BF600000F0C8F8F86800280CDAEBE70420284055
:10BF7000042807D12B21384600F0BCF8F8680028C7
:10BF800000DADFE702202840022818D1E807C00FB6
:10BF9000002814D10898002811D1002C0FD007E0F8
:10BFA0003021384600F0A6F8F868002800DAC9E722
:10BFB000002C04D02046641E04998842F0D80195D4
:10BFC000009431463846089B079A00F003F800BFFA
:10BFD000B8E70000FFB585B015461E460E9C012748
:10BFE000069803900120029007E029460398FFF786
:10BFF0009DF803900298401C02900398A842F4D246
:10C000000298864200D902960F98C007C00F0028F8
:10C010001FD1002C1DD002210F980840022804D106
:10C02000002E02D13020019001E02020019009E093
:10C030000199059800F05EF80598C068002801DABB
:10C0400009B0F0BD002C04D02046641E029988423D
:10C05000EED802E038466843074639460698FFF7AF
:10C0600065F8A84201D3012000E000203146761E89
:10C07000012901DD012100E0002108430028E9D168
:10C0800000BF39460698FFF751F8049004987843AA
:10C090000699081A0690164A0498115C059800F053
:10C0A00029F80598C068002800DA06E029463846D5
:10C0B000FFF73CF80746002FE3D100BF0F98C007F9
:10C0C000C00F002812D0002C10D008E020210598C5
:10C0D00000F010F80598C068002800DAB0E7002CDE
:10C0E00004D02046641E02998842EFD800BFA7E71B
:10C0F000B029020070B504460E46A568681C616848
:10C10000814206DB20684655681CA060E068401C40
:10C11000E0606168A06888420DD1A268216820694A
:10C12000FFF7CAFCA168884203D00020C043E0604A
:10C1300001E00020A06070BD0FB410B503A9044B4E
:10C14000044A029800F0E8F810BC08BC04B0184794
:10C15000C5FD0100542100202021020C01D0102136
:10C160001046020A01D010460839020901D01046D3
:10C17000091F820801D01046891E420801D0881E7E
:10C180007047081A704730B47446641E2578641CE2
:10C19000AB4204D3635D5B00E31830BC18471D4617
:10C1A000F8E702E008C8121F08C1002AFAD1704758
:10C1B0007047002001E001C1121F002AFBD1704727
:10C1C000F0B51FB484B007980699020D014314D04E
:10C1D0004A484B491018484305140F9801280E98F7
:10C1E0001CD0281A401C0024464E47490094019157
:10C1F0000290002814DA474227E00F98012443A355
:10C20000012808D0002104980F9A84600360C2605E
:10C21000416009B0F0BD0E98C143F4E74042E2E747
:10C22000074612E0F80707D02246334601990098E6
:10C23000FFF7BAF80191009022463346104619469E
:10C24000FFF7B2F804460E467F10002FEAD102989D
:10C25000019B0028009A0799069802DAFFF7A4F8D4
:10C2600001E0FFF709F904460E460022284BFFF7CC
:10C270009BF903D80020C043014607E00022254B6C
:10C2800020463146FEF7DEFFFFF76EF9102409E085
:10C29000002C0ADB0A220023FEF7A3FF059B3032A5
:10C2A0001A55641E02460A43F2D11122641C059BF2
:10C2B000121B1C190F9B012B03D0012308430ED125
:10C2C0000AE0084304D011200E9000200F9084E76C
:10C2D0000E98151A6D1E0BE00E98824202DD0023A7
:10C2E0006D1C03E0824201DA00236D1E002BEED0AC
:10C2F00004980F998260C16030C08AE701FCFFFF9B
:10C30000104D0000000024400000F03F300000000D
:10C310000000F0430000E03FFFB597B0064600255F
:10C3200018E2252877D100242746FD49049400E02F
:10C330000443761C32780120203A90400842F7D11D
:10C3400030782A280ED00222307801463039092967
:10C3500016D804990A235943303940181443761CDF
:10C360000490F1E7189802C804911890002904DAA3
:10C370000120400304434842049002200443761CF9
:10C3800030782E2814D1042004437078761C2A2893
:10C3900009D11898761C80C8189009E00A214F43EB
:10C3A000303FC719761C3078014630390929F5D954
:10C3B00030786C2810D006DC4C281AD068280ED0B3
:10C3C0006A2817D104E0742813D07A2812D110E01B
:10C3D0000120400504430CE00121090501E003218F
:10C3E00009050C437178814203D10120000524180E
:10C3F000761C761C3078119066280BD013DC5828F8
:10C400007DD009DC00287BD04528F6D04628F4D022
:10C4100047281AD1A5E118E0632835D0642870D0E8
:10C42000652812D19DE170286CD008DC6728F1D016
:10C4300069287BD06E280DD06F2806D1BAE073280A
:10C440002ED0752871D0782859D01A9A199990470A
:10C450006D1C7EE16002400F022809D003280DD038
:10C460000428189801680DD00D60001D189070E127
:10C470001898EA1701680D604A60F6E71898016895
:10C480000D80F2E70D70F0E718986A460178117296
:10C49000001D18900020507202A80090012005E0B5
:10C4A000189802C8189000200091C04361070DD56C
:10C4B000002101E00199491C0191B94212DA81423F
:10C4C000F8DB009A515C0029F4D10BE0002101E077
:10C4D0000199491C01918142FADB019A0099895C1A
:10C4E0000029F5D1019904981A9B471A214638462C
:10C4F000199A00F097FA0199401945180BE04FE09E
:10C500002CE113E04EE0009800990078491C00915E
:10C510001A9A199990470198401E0190401CF2D137
:10C52000214638461A9B199A10E137E00A2000216B
:10C53000009001916002410F022907D0189A01CAA8
:10C540001892C2179446032908D00AE01898C01D13
:10C55000C108C90005C91891944607E000B2C21786
:10C560009446042902D140B2C1178C46002261468C
:10C57000944506DA0A460021404291418C462D211D
:10C5800002E0210504D52B216A461173012103E045
:10C59000E10701D02021F7E7029155E00A200AE0E7
:10C5A000102008E010200090002104200443019195
:10C5B000082703E008200021019100906002410F4C
:10C5C000022907D0189A01CA18920022944603291A
:10C5D00008D008E01898C01DC108C90005C9189105
:10C5E000944603E080B2042900D1C0B20021029138
:10C5F000210729D51199702906D0009A1021019B95
:10C600004A401A4305D00EE040216A4611730121C9
:10C6100008E06146014306D030216A461173119942
:10C62000517302210291009A0821019B4A401A434A
:10C630000AD16146014301D1610705D530216A461F
:10C64000117301217F1E02911199582904D035A13F
:10C650000E910DA90D910DE037A1F9E76146019BFF
:10C66000009AFEF7BEFD0E9B8C469B5C0D9A521EF7
:10C670000D92137061460143F0D10D9805A9081A77
:10C6800020300190600703D501200004844300E0BE
:10C6900001270198874201DD381A00E00020019946
:10C6A00000904118029809180498401A0490E00379
:10C6B00006D421461A9B199A049800F0B3F945193B
:10C6C000002706E003A81A9AC05D199990476D1CCF
:10C6D0007F1C02988742F5DBE0030CD521461A9BAC
:10C6E000199A049800F09EF9451904E01A9A30202E
:10C6F000199990476D1C0099481E00900029F5DC9F
:10C7000008E00D980D990078491C0D911A9A199915
:10C7100090476D1C0199481E01900029F1DC63E1EE
:10C720000928010030313233343536373839616207
:10C7300063646566000000003031323334353637CB
:10C7400038394142434445460000000000F05AF9A0
:10C750004519761C3078002800D0E2E528461BB049
:10C76000F0BD600700D406271898C01DC108C90095
:10C7700048680A680831C30FDB071891190001D017
:10C780009CA108E0210501D59BA104E0E10701D0AF
:10C790009AA100E09AA1430011985B0810916528C6
:10C7A0000CD006DC452809D046281DD0472841D1A9
:10C7B00041E0662818D067283CD13CE00021112FC9
:10C7C00001DB112000E0781C0191009008A911A85C
:10C7D000FFF7F6FC139905910021119A15927F1C21
:10C7E00012980197009150E00120C00703900120AA
:10C7F000019008A9009711A8FFF7E2FC139A149979
:10C8000005920022119B009212981593059A0192AD
:10C81000002901D0104602E0791C40180190381A16
:10C8200001D5019804E04042401E0090781C019020
:10C83000C01B029043E0012F00DA01270021112FD5
:10C8400001DD112000E038460191009008A911A8EF
:10C85000FFF7B6FC13990591119A002112981592D1
:10C860000091019721070CD40599B94201DB019988
:10C8700000E00191012904DD159A491E515C30291F
:10C8800006D0B84201DA011D05DA0121029115E056
:10C890000199491EEDE7002805DC00994118009137
:10C8A0000199091A03E0019A411C914200DD0191AE
:10C8B0000099401A401C02900120C00703902007F5
:10C8C00006D402990198814202DB0020C043029005
:10C8D00000206946C87707AF012103980337C907CD
:10C8E000884224D0022011902B2012900398002817
:10C8F0000CDA404203902D20129007E00A210398A1
:10C90000FEF714FC30317F1E039039701199481ED8
:10C9100011900029F2DC03980028EFD1791E1298BB
:10C9200008703078202108404530BF1E387006A8B6
:10C93000C01BC01D039010980078002800D0012073
:10C94000019941180298C01709180398091804980A
:10C95000401A401E0490E00306D421461A9B199AFF
:10C96000049800F05FF8451910980078002803D06B
:10C970001A9A199990476D1CE00324D521461A9BF9
:10C98000199A049800F04EF845191CE00098002808
:10C9900007DB00990598884203DD1598405C1999DA
:10C9A00001E0199930201A9A904700986D1C401C9C
:10C9B00000900298401E0290002804D11A9A2E205E
:10C9C000199990476D1C0199481E01900029DDDCE2
:10C9D00005E038781A9A7F1C199990476D1C0399C5
:10C9E000481E03900029F4DC21461A9B199A0498EA
:10C9F000ACE600002D0000002B000000200000002D
:10CA000000000000F8B5044600251E4617468804BD
:10CA100004D405E039462020B0476D1C641EF9D5CA
:10CA20002846F8BDFFB50446002581B01E46C80360
:10CA300001D5302700E02027880404D505E03846DA
:10CA40000399B0476D1C641EF9D5284605B0F0BDAA
:10CA5000F7B582B00446164600253788002030809E
:10CA6000606B00280ED0616B08783B463246039914
:10CA700004F0CAFE054600BF002D02D0284605B0CE
:10CA8000F0BD00BF206B00280CD03B463246206B27
:10CA9000039905F0EDFB054600BF002D01D02846A7
:10CAA000EDE700BF2E20005D00280DD02E21085D8F
:10CAB0003B463246039903F0A8FC054600BF002D13
:10CAC00001D02846DBE700BF2D20005D00280BD0F9
:10CAD0003A463146039800F010FF054600BF002D8E
:10CAE00001D02846CBE700BFA07800280BD03A46FB
:10CAF0003146039800F016FB054600BF002D01D01B
:10CB00002846BCE700BFE07800280DD0E17848B2A5
:10CB10003B463246039903F0B7F8054600BF002DA7
:10CB200001D02846ABE700BF606800280ED0002087
:10CB3000616808563B463246039905F0EFFB05460F
:10CB400000BF002D01D0284699E700BF20890028AA
:10CB50000FDD019700960622022120460830039B34
:10CB600005F0DAFD054600BF002D01D0284686E716
:10CB700000BF208A00280FDD0197009607220321BD
:10CB800020461030039B05F0C7FD054600BF002D71
:10CB900001D0284673E700BF208B00280FDD0197E6
:10CBA00000961522142120461830039B05F0B4FD91
:10CBB000054600BF002D01D0284660E700BF206A6F
:10CBC00000280CD03B463246206A039901F06EFEE5
:10CBD000054600BF002D01D0284650E700BF606A1F
:10CBE00000280CD03B463246606A039903F056FD9C
:10CBF000054600BF002D01D0284640E700BF2C208D
:10CC0000005D00280CDD3B4632462046039904F0C7
:10CC100016FE054600BF002D01D028462FE700BFB5
:10CC2000207800280CD03B4632462046039903F07A
:10CC300071FD054600BF002D01D028461FE700BF4B
:10CC400028461CE70146C87804221040002801D17C
:10CC5000072070470020FCE710B5012202210020C8
:10CC600001F01AF8044600BF002C03D0072C01D0B5
:10CC7000204610BD00BF07220221012001F00CF860
:10CC8000044600BF002C03D0072C01D02046F0E75B
:10CC900000BF0A220021084600F0FEFF044600BF44
:10CCA000002C03D0072C01D02046E2E700BF002073
:10CCB000DFE7000030B5A7B0382119A8FEF779FAF0
:10CCC000022118A801710621C171242110A8FEF7C4
:10CCD00070FA012110A80173FF202D301490B420A8
:10CCE00015900F4800680F90382101A8FEF761FAEF
:10CCF00000200C4B10AA01A9009019A800F0CCFA52
:10CD0000044600BF2546002D07D000BF06A24521DE
:10CD1000C900284600F01EF800BF00BF27B030BD94
:10CD2000642802003D0C02002E2E5C2E2E5C2E2E5E
:10CD30005C6D61696E2E630070B504460D46164643
:10CD40000C2000F0D7FF32462946204600F040F87C
:10CD500070BD00007FB504460D46164622460CA164
:10CD60000020FEF745FF002C07D030782B462246E6
:10CD70000BA100900020FEF73BFF69468D800296D4
:10CD8000039401AA00211148FFF7D6FF7FBD0000E0
:10CD90004572726F725F436F64653A2025750A00B1
:10CDA0004572726F725F436F64653A2025750A4C55
:10CDB000696E655F4E756D3A2025750A46696C652A
:10CDC0005F4E616D653A2025730A00000140000046
:10CDD00018B5012400946B461B781E4B18605960EF
:10CDE0009A601D4BC318002B0CD0012B19D1194B85
:10CDF000DA60DB681B88174CA3612346DB685B683D
:10CE0000E3610EE0134B1A611B699B68114C63616F
:10CE100023461B691B88A36123461B695B68E3618A
:10CE200000BF00BF0B4B1B680A4B5B68094B9B683C
:10CE3000084BDB68074B1B69064B5B69054B9B691D
:10CE4000044BDB6972B600BF6B461B78002BFBD12D
:10CE500062B618BDA4290020FFBFFFFFF8B5044645
:10CE60000D46164603480768324629462046B8470D
:10CE7000F8BD000038280020F8B505460C46277894
:10CE80000C21A068484306490E58064800680090E7
:10CE90002A463946204608302369B047F8BD0000CD
:10CEA0008C2900202821002010B50446064800786F
:10CEB00014225043044A121D81182046FFF7DCFF5C
:10CEC000042004F04DFD10BDC028002010B503461D
:10CED0000C4600BF0D480068002801D1082010BD95
:10CEE00000BF002A01D10720F9E7002B01D107205C
:10CEF000F5E71868007C002801D00820EFE71968E2
:10CF0000002008744C744A6100BFE8E73421002017
:10CF1000FFB581B00E4614461F4620468107890F93
:10CF2000002901D1012100E00021002902D10720C0
:10CF300005B0F0BD002C04D100201C49086007207A
:10CF4000F6E704F06DFB1A480760032019490870E2
:10CF500016480460183400250CE0E900134A1268F2
:10CF60008818002101704170867044601821714357
:10CF70000C196D1C032DF0DB00200F4908600F49D0
:10CF800008700F4908701420FEF7ECFC03211420F0
:10CF9000FEF742FD1420FEF7EFFC019804F016FBAB
:10CFA00004F00EFB074908600020C1E7342100208F
:10CFB0004C21002030210020382100204821002071
:10CFC000492100203C210020FEB504460D461746AD
:10CFD000264600BF12480068002801D10820FEBD87
:10CFE00000BF002C01D10820F9E7052D01D2072050
:10CFF000F5E77069002801D10820F0E7707C01286E
:10D0000001D1284600E00020029005F05BFB00976C
:10D0100001902A463146029B05F03AF8DFE700000E
:10D020003421002070B50446254600BF0B48006837
:10D03000002801D1082070BD00BF002C02D0686913
:10D04000002801D10820F6E70020287405F03AFBFB
:10D050000646294605F048F8EDE700003421002097
:10D06000F0B589B0044616461F4620221E4901A885
:10D07000FEF786F8A06807902079002801D00121EA
:10D0800000E000216846017608A807706079002852
:10D0900001D00E2000E0002069464876E078039039
:10D0A000A078049020780290607801900F48066084
:10D0B00000200F4908702079022802D1062009B00B
:10D0C000F0BD0C4901A803F0ADFB054600BF002DE3
:10D0D00001D02846F3E700BF03F026FC01210648F3
:10D0E00003F0EAFBEBE700004829020004210020DE
:10D0F00002210020C52302000121002070B5044652
:10D1000007480470012103F07DFC0546112D01D173
:10D11000042070BD002D01D00320FAE70020F8E7BD
:10D1200000210020F8B505460C4617462088001D52
:10D13000B84201D90C20F8BD684679DF064600BF29
:10D14000002E01D03046F6E700BF03202188685446
:10D150002088401C20801920218868542088401C89
:10D160002080208841196846008805F045FA21880A
:10D17000401820800020DEE710B500220121C903FD
:10D1800002480068FFF720FF10BD00005C28020085
:10D1900070B50446206803F0EFFC206803F0BCFC87
:10D1A0000021606803F0ABFCA0691449052212025B
:10D1B0008918486200BF607D217D02460A430F4BFB
:10D1C00005252D025B19DA6600BF0C4862682168EC
:10D1D00003F02AFD207D01280ED10021A06803F074
:10D1E0008EFCE06803F0C8FCE06803F095FC03489F
:10D1F000A268E16803F0F6FC70BD0000002000406A
:10D20000F3B593B00D461F21129111911398002888
:10D2100018D01398FFF716FD044600BF002C02D06B
:10D22000204615B0F0BD00BF12AA09A91398FFF758
:10D230000FFC044600BF002C01D02046F1E700BFE0
:10D2400009AE02E0002600201290002D17D02846DB
:10D2500004F0FAFB044600BF002C01D02046E0E7B2
:10D2600000BF11AA01A92846FFF7F2FB044600BF40
:10D27000002C01D02046D4E700BF01AF02E0002718
:10D280000020119010A88088C3B210A80089C1B2F4
:10D290003A46304672DFC4E7F8B504460F461546F5
:10D2A0001E4600BF002C01D10E20F8BD00BF00BFFC
:10D2B000002D01D10E20F8E700BF0020484908707A
:10D2C000484806604849069808602422294647488D
:10D2D000FDF756FF00F050F94548464908604648BA
:10D2E000886038214548FDF764FF2078434908707D
:10D2F000A0788870E078C8706078487062692069AA
:10D300004A6108610846E268A168C2608160E2691A
:10D31000A169C2618161606A00281BD03848374921
:10D32000486238498160606A00883449496A0880E7
:10D33000606A80883149496A8880002005E0616A16
:10D340008968095C2F4A1154401C2C49496A898814
:10D350008142F4D8A06A002824D02B492B48816050
:10D360002649886228492548806A8160A06A8088A9
:10D370002249896A8880A06A00882049896A0880D1
:10D38000002005E0A16A8968095C1F4A1154401C0D
:10D390001A49896A89888142F4D82C20015D17488E
:10D3A00020300173206A00280BD019481349086205
:10D3B000206A4088096A4880206A00880F49096A03
:10D3C00008806068002804D012480C4948606068F2
:10D3D000486039460948FFF713FF0090009864E75A
:10D3E000C8200020C0200020C420002004260020E7
:10D3F000382600202826002058260020CC25002092
:10D400007826002084260020B0260020A4260020B4
:10D41000CC200020D020002070B5044620881028A1
:10D4200004D0112809D01B286CD11DE0A07D012853
:10D4300002D1A0883549088065E000203449087091
:10D44000A0883249098888420DD1012000F09CF85B
:10D450000546002D07D02F480068002803D0284635
:10D460002C49096888474EE0207A002849D12A488B
:10D470000078012806D0022813D0032820D00428E1
:10D480003DD12FE0022000F07FF80546002D07D0A7
:10D4900020480068002803D028461E4909688847AC
:10D4A0002EE0032000F070F80546002D07D0194843
:10D4B0000068002803D028461649096888471FE0FD
:10D4C000032016490870042000F05EF80546002D80
:10D4D00007D010480068002803D028460D49096885
:10D4E00088470DE000200D4908700D4800680028AD
:10D4F00004D0084600780A490968884700E000BF60
:10D5000000BF00E000BF00BF70BD0000D2200020BF
:10D51000C9200020C4200020C8200020BC200020FA
:10D52000C020002070B504460025022C02D0032C38
:10D5300018D100E000BF0D480078002811D000206D
:10D540000A4908700A48007800F01EF80546002DC8
:10D5500007D008480068002803D028460549096814
:10D56000884700E000BF00BF70BD0000B42000206D
:10D57000C8200020C420002010B507210148FDF775
:10D5800018FE10BDB520002030B587B00546A24872
:10D59000057002F094FB002805D001209F49087017
:10D5A000002007B030BDFFF7E7FF9D484078002816
:10D5B00003D09948007801280FD099488078002836
:10D5C00003D095480078012807D095488078002836
:10D5D00012D09148007802280ED1924800680028A5
:10D5E00007D001209049087008208E4909688847B3
:10D5F00002E000208C4908708748007801280BD190
:10D6000087484078002804D0884803F015FC00289B
:10D6100002D10220804908707F48007802280BD18F
:10D620007F488078002804D0804803F005FC00285B
:10D6300002D10320784908707948007B002806D180
:10D6400075480078032802D1042073490870744893
:10D65000007E002808D170480078042804D10020FA
:10D660006D490870724908706E480068002817D02C
:10D6700069480078032803D06748007804280FD150
:10D680006748007800280BD06A480078002807D146
:10D69000012069490870072062490968884702E04B
:10D6A000002065490870182101A8FDF782FD0021BE
:10D6B00068460171002002906846017300200490C2
:10D6C00055480078012806D0022811D0032823D01D
:10D6D00004287CD152E05548401E02900121684642
:10D6E00001710021C182818201205149087079E0D5
:10D6F0004E48401E02900121684601714848008949
:10D7000081B26846C1824648808881B2684681827B
:10D7100002204749087065E04148808A81B2684626
:10D72000C1823F48008A81B268468182434805F041
:10D7300089F800281ED03A48007800281AD03D48C1
:10D740000078002816D10220694608733B480490EF
:10D7500004203B49C87000213948FFF751FD0446B9
:10D7600000BF002C01D020461BE700BF0520304938
:10D77000087002E003202E49087033E02848808BAF
:10D7800081B2684681822648008C81B26846C18297
:10D790002A4805F057F800281FD0214800780028B3
:10D7A0001BD024480078002817D10220694608734E
:10D7B0002248049004202249C87000212048FFF725
:10D7C0001FFD044600BF002C02D02046E9E608E019
:10D7D00000BF06201649087002E0042014490870B2
:10D7E00000E000BF00BF0C480078002808D001A866
:10D7F00073DF044600BF002C01D02046D1E600BFF5
:10D8000008480068002804D00948007805490968DC
:10D8100088470020C5E60000C8200020B420002072
:10D8200004260020C0200020CB200020B6200020AD
:10D83000BC200020C9200020CA200020282600206B
:10D84000CC25002070B505461C2229461448FDF75A
:10D8500097FC002013490870286800280BD0082284
:10D8600011482968FDF78CFC0F487ADF0446002C2C
:10D8700008D0204670BD0C487BDF0446002C01D048
:10D880002046F7E70020C0430849088000200849E7
:10D890000870084A00210848FFF718FBEAE7000073
:10D8A000D0260020E8200020D4200020DE20002008
:10D8B000DC200020292602001029020010B50446B1
:10D8C0002088102806D0112808D012280ED0502801
:10D8D00010D107E0204603F041FA0CE0204603F0A7
:10D8E0005BFA08E0204603F079FA04E0204603F0F2
:10D8F00029FA00E000BF00BF10BDFEB505460C468A
:10D90000174620880930B84201D90C20FEBD684670
:10D9100071DF064600BF002E01D03046F6E700BF9B
:10D920000820218868542088401C20801B202188E2
:10D9300068542088401C208021884819062200A9AC
:10D940000131FDF71DFC2088801D2080684600788D
:10D95000002802D12188685402E0012021886854FF
:10D960002088401C20800020D0E7000010B504462D
:10D97000204601F0C7FB2046FFF7A0FF204600F03D
:10D98000CDF8204603F080F92046FFF745FD2146FB
:10D99000014800F08BF810BD1222002070B586B04F
:10D9A00039480068059000BF00234822374905A880
:10D9B00004F006F8054600BF2E46002E07D000BF33
:10D9C00033A2FF2198313046FFF7C4F900BF00BFF2
:10D9D00000BF14216846FDF7ECFB02216846018078
:10D9E000002104910173012101720021417200BFE5
:10D9F0002B4E304603F092FE044600BF2546002D14
:10DA000007D000BF22A2FF21A3312846FFF7A2F9C9
:10DA100000BF00BF00BF012069460873684603F0DD
:10DA2000B7FF044600BF2546002D07D000BF18A24F
:10DA3000FF21A8312846FFF78DF900BF00BF194824
:10DA400003F098FF044600BF2546002D07D000BF15
:10DA50000FA2FF21AC312846FFF77CF900BF00BFC1
:10DA6000114803F0E3FF044600BF2546002D07D010
:10DA700000BF07A2FF21B0312846FFF76BF900BFB6
:10DA800000BF06B070BD000060280200182400200E
:10DA90002E2E5C2E2E5C2E2E5C6D61696E2E630028
:10DAA000E81F00206DD90100A51D02000A88102A78
:10DAB00002D0112A07D102E08A88028004E0002205
:10DAC000D243028000E000BF00BF70477CB504462F
:10DAD000A1786A460D4803F01DFA0546002D13D1C2
:10DAE00061781C2251430A4A88181C231A46694649
:10DAF00003F04CFB0748807A800007490A5821460A
:10DB000068469047054600BF7CBD0000EC20002021
:10DB1000EC270020382800202429020070B5054693
:10DB20002888102802D0112832D118E01A4800683D
:10DB300000280ED100F084FF044600BF002C07D05F
:10DB400016480068002803D0204614490968884711
:10DB500000BF11480068401C0F49086019E00E48DA
:10DB60000068401E0C4908600846006800280ED175
:10DB7000FFF772F8044600BF002C07D00748006882
:10DB8000002803D0204605490968884700BF00E007
:10DB900000BF00BF70BD0000B0200020AC200020FE
:10DBA00010B5032000F06CFB044600BF002C03D02E
:10DBB000062C01D0204610BD00BF0020FBE700006E
:10DBC000F3B581B006460025002400E0641C042C57
:10DBD00004D2A00029490858B042F7D1042C42D2FF
:10DBE0000298002825D0012802D002283AD133E03B
:10DBF0006000201822490D5C600020184018407811
:10DC000000280ED01F4800680A22504301461E4AD1
:10DC10001E480068FFF7D8F90746002F01D11A48BF
:10DC20000670600020181649401880781849085579
:10DC300018E016480068FFF7F5F91548005D610027
:10DC400061180F4A89188978884204D16000201829
:10DC500011464018857805E06000201808494018F2
:10DC6000457800BF00BF002D07D00A480068002893
:10DC700003D02846074909688847FEBDE02802000E
:10DC8000A025002094200020A4200020DC280200F1
:10DC9000A5200020A020002030B503460020042B42
:10DCA00024D2012A07D1012903D11C460D34E4B244
:10DCB00000E00024224600290FD0012902D00229C9
:10DCC00011D104E05C001C19094D2A550DE05C00DF
:10DCD0001C19074D6419627007E05C001C19044DA3
:10DCE0006419A27001E0072000BF00E0072030BDEA
:10DCF000A025002070B50446002506480078C0071E
:10DD0000C00F002803D0204600F006F8054628463C
:10DD100070BD000098200020F8B5044600250026BC
:10DD20002300FEF730FA180D1E1F68B1F9F8F7F658
:10DD3000F5F4F3F2F1F0EFEEEDECEBEAE9E8E7E60B
:10DD400000BFF74801680F20400588430F214905AF
:10DD50000840F44988600020C86000BFF2480470A1
:10DD600080E200BF00BFEE480168072080058843BD
:10DD70000F2149050840EB4988600020C86000BFBA
:10DD8000084640680F2149054840012149050840DF
:10DD900000280FD000BF0846E24988600020C86014
:10DDA00000BF022C02D1E120C00001E07D20400133
:10DDB00006460EE000BF01204005DA49C860002099
:10DDC000886000BF022C01D1C82001E0FF20913003
:10DDD0000646D548047064213046FDF7A7F9D349BB
:10DDE00009684843074600223946D1480068FFF7D2
:10DDF000EBF8054636E200BFC948016807208005F8
:10DE000088430F2149050840C64988600020C86042
:10DE100000BF084640680F214905484001214905D7
:10DE2000084000280FD000BF0846BE498860002087
:10DE3000C86000BF032C02D11920400101E07D2001
:10DE4000400106460EE000BF01204005B549C8600C
:10DE50000020886000BF032C01D1C82001E0FF2012
:10DE600091300646B048047064213046FDF75EF9F3
:10DE7000AE4909684843074600223946AC48006865
:10DE8000FFF7A2F80546EDE100BFA54801680720AD
:10DE9000800588430F2149050840A2498860002079
:10DEA000C86000BF084640680F214905484001216D
:10DEB0004905084000280FD000BF084699498860EE
:10DEC0000020C86000BF042C02D17D20400101E089
:10DED0007D204001064623E000BF01204005914916
:10DEE000C8600020886000BF042C16D1FF2091304C
:10DEF00015E0B6E1AAE1A8E195E182E16FE163E115
:10DF000027E125E123E121E11FE113E1F0E0D9E080
:10DF1000C0E0A9E090E05DE014E0FF20913006460B
:10DF20008148047064213046FDF700F97F49096893
:10DF300048430746002239467D480068FFF744F809
:10DF400005468FE100BF76480168072080058843B9
:10DF50000F2149050840734988600020C86000BF50
:10DF6000084640680F2149054840012149050840FD
:10DF700000280ED000BF08466A4988600020C860AB
:10DF800000BF052C01D1C82001E07D2040010646DC
:10DF90000EE000BF012040056249C8600020886093
:10DFA00000BF052C01D1C82001E0FF2091300646BA
:10DFB0005D48047064213046FDF7B8F85B49096894
:10DFC000484307460022394659480068FEF7FCFFDF
:10DFD000054647E100BF5248016807208005884395
:10DFE0000F21490508404F4988600020C86000BFE4
:10DFF000084640680F21490548400121490508406D
:10E00000002806D000BF0846464988600020C86046
:10E0100007E000BF012040054249C8600020886039
:10E0200000BF414804704148002201684048006830
:10E03000FEF7CAFF054615E100BF39480168072011
:10E04000800588430F214905084036498860002033
:10E05000C86000BF00BF01204005C8600020886084
:10E0600000BF31480470FDE000BF2E49486801211F
:10E07000890581432B4A9160012189050140D160C6
:10E0800000BF2A480022016829480068FEF79CFF6B
:10E090000546E7E000BF234948680121890581431F
:10E0A000204A9160012189050140D16000BF1F48CD
:10E0B00000688200811800221D480068FEF784FF76
:10E0C0000546CFE000BF1749486801218905814313
:10E0D000144A9160012189050140D16000BF1348B5
:10E0E0000022016812480068FEF76EFF0546B9E09D
:10E0F00000BF0C494868012189058143094A9160A4
:10E10000012189050140D16000BF084800688200F4
:10E110008118002206480068FEF756FF0546A1E078
:10E120009C2000200005005090200020942000201A
:10E13000D428020000BF0F2040054C49C8600020D1
:10E14000886000BF4A4804708CE000BF00BF00BF79
:10E1500000BF48480068FEF765FF05461120061B12
:10E16000002E23D0002D21D10120C0054249086096
:10E17000012E10D9C821714308466421FCF7D6FF4F
:10E180003E49096848430746002239463948006835
:10E19000FEF71AFF054600BF374800680F21490502
:10E1A00008403249C860002088600CE000BF324857
:10E1B00000680F21490508402C4988600020C8608C
:10E1C00000BF2D4908604DE000BF0F2040052749E2
:10E1D00088600020C86000BF2548047042E000BF8E
:10E1E00007208005214988600020C86000BF00BF6B
:10E1F00001204005C8600020886000BF1C480470F2
:10E2000030E000BF0D204005184988600020C8603C
:10E2100000BF00BF01208005C8600020886000BFEB
:10E22000134804701EE000BF0320C0050F4988603A
:10E230000020C86000BF00BF03204005C860002068
:10E24000886000BF0A4804700CE000BF00BF0F20C8
:10E2500040050649C8600020886000BF044804707B
:10E2600000E000BF00BF2846F8BD000000050050D8
:10E2700090200020D82802009C200020942000201C
:10E2800070B50246002021E08400124D2C59A400F4
:10E29000114D64192168012484401440002C01D0E0
:10E2A000032400E00024234603252D040C46AC4340
:10E2B00021461C0421430524240707252D02641947
:10E2C0008500044E7559AD006151401C0428DBD314
:10E2D000002070BDE02802000007005001468800C1
:10E2E000014A1058704700005C2800200146014890
:10E2F000405670477C280020F0B59BB004460025AE
:10E300005F4B0FCB16AE0FC6012010A908852A312E
:10E3100016A863DF054600BF2F46002F06D000BFBA
:10E3200058A218213846FEF715FD00BF00BF012096
:10E3300010A98882163116A863DF00BF2F46002F70
:10E3400006D000BF4FA21E213846FEF703FD00BFD6
:10E3500000BF1C210EA8FCF72CFF08A8007E02219C
:10E360008843811C08A80176007E08218843083074
:10E3700008A9087600200D9000BF08A8007D0109BB
:10E380000901491C08A80175007DF021884310305F
:10E3900008A9087500BF08A8807D06218843811C54
:10E3A00008A8817500200C9008A8807C062188436D
:10E3B000801C08A9887400BF08A8007C0109090115
:10E3C000491C08A80174007CF0218843103008A97A
:10E3D000087400BF00BF08A8407C01090901491C5E
:10E3E00008A84174407CF0218843103008A9487483
:10E3F00000BF142107A8FCF7DCFE1AA807900CA8A0
:10E4000008902021684601850C21818425A60B9661
:10E41000142102A8FCF7CDFE15A802900CA80390C9
:10E42000042168468182022101820121019101A813
:10E4300006902088A31C07AA0EA9A2DF0546208803
:10E44000A31C02AA0EA9A2DF054600BF2F46002F7B
:10E4500006D000BF0BA25E213846FEF77BFC00BF52
:10E4600000BF218812A0FDF767FE618816A0FDF7A6
:10E4700063FEE1881AA0FDF75FFE00201BB0F0BD2F
:10E48000742802002E2E5C2E2E5C2E2E5C64657687
:10E490006963655F696E666F5F73657276696365F0
:10E4A0002E6300004465766963655F496E666F00A0
:10E4B000536572766963652068616E646C653A20A5
:10E4C00025640A0D00000000436861722076616CCB
:10E4D00075652068616E646C653A2025640D0A00DC
:10E4E0004368617220636363642068616E646C6575
:10E4F0003A2025640D0A0000F0B587B03E48007848
:10E50000142148433C49091D4418E7680C21A068C0
:10E5100048433A494018008906900C21A0684843B6
:10E5200036494018408905900C21A068484333497A
:10E5300040184068049002F0DFFD01460290384622
:10E54000FCF7F4FD002901D1012000E00020039038
:10E55000059906984843049946186088C019A1880F
:10E5600045180020264908600398002804D002F0CE
:10E57000C3FD618888420AD00398002804D0B542C0
:10E5800002D1A088002802D0A06803280CD102F094
:10E59000B3FD014602903846FCF7C8FD19490860F2
:10E5A000032003F0DDF924E002F0A6FD0190A1882C
:10E5B000C8190199FCF7BAFD88081349086002F0F0
:10E5C0009BFD014601902846FCF7B0FD002901D1D2
:10E5D000012000E000200290B54206D002980028F9
:10E5E00003D1B1B2A8B203F0F7FB022003F0B8F9EF
:10E5F00000BF07B0F0BD0000C02800208C2900201B
:10E60000182100201C2100201421002010B50848EA
:10E610000078142148430649091D4418207804282D
:10E6200002D000F0A5F801E003F04AFB10BD0000A5
:10E63000C028002010B50F480078142148430D4928
:10E64000091D441860880C4908602078012804D00E
:10E65000032805D0042809D105E003F031FB06E0CA
:10E66000FFF74AFF03E003F0D0FF00E000BF00BF68
:10E6700010BD0000C02800202821002010B503484C
:10E680004078002801D0FFF7D5FF10BDC02800203A
:10E690000023142141430C4A535414214143891847
:10E6A0004B8002231421414389188B6000231421DD
:10E6B00041438918CB601421414389180B6114210F
:10E6C000414389188B807047C4280020FFB581B072
:10E6D000064617461C4840780A2830D01A48007869
:10E6E0001949497844180A2C00D30A3C1420604385
:10E6F0001549091D0E541420604340180761142069
:10E7000060434118029805C8CA60886014216143BB
:10E710000D4A121D891804984880142161438918F4
:10E720000A988880101F4078401C111F48700748C5
:10E730000078002801D1FFF77DFF002500E00425C7
:10E74000284605B0F0BD0000C028002010210020A0
:10E7500010B50020054908704870002403E02046E9
:10E76000FFF796FF641C0A2CF9D310BDC0280020C7
:10E7700010B50848007814225043064A121D81182B
:10E780000020FEF779FB00F007F8002003F0E8F81E
:10E7900010BD0000C028002010B509490878FFF717
:10E7A00077FF07484078401E0549487008460078C2
:10E7B000401CC0B208700A2801D10020087010BDAA
:10E7C000C0280020FEB51F480068002836D01D482C
:10E7D0000068056802F0F4FE01901B4804682146B9
:10E7E000019803F071FBC61C18480078002801D17D
:10E7F00002F0F8FEAE4201D2284600E0304604198D
:10E800002402240A204602F0D5FE02F0D9FE009030
:10E810000199009803F058FBC71C2046019903F0AA
:10E8200053FB874209D902F0CBFE074602F0C2FE35
:10E830002F20FCF74FFC03F0EBFC01E002F0F0FEB0
:10E84000FEBD0000382100203C2100205021002086
:10E8500001460888062808DB08881922D201904260
:10E8600005DD0888104A904201D00720704748888B
:10E87000062808DB48881922D201904205DD488825
:10E88000094A904201D00720F0E70888064A9042E2
:10E8900008D04888904205D008884A88904201DD17
:10E8A0000720E3E70020E1E7FFFF0000FFB581B0AC
:10E8B00006460D4614462088801D0499884202D9D8
:10E8C0000C2005B0F0BD3046FFF7C2FF074600BF81
:10E8D000002F01D03846F4E700BF05202188685496
:10E8E0002088401C20801220218868542088401CE9
:10E8F000208022885119308803F07EFE218840183C
:10E90000208022885119708803F076FE21884018F3
:10E9100020800020D5E7000010B5044600BF03A208
:10E92000F8212046FEF716FA00BF10BD2E2E5C2EF1
:10E930002E5C2E2E5C6D61696E2E630030B587B043
:10E940001C216846FCF735FC002000900520C00320
:10E9500001900F20000402900321684601730021FA
:10E96000C18101740B4805900B4806906846FEF77C
:10E9700069FF044600BF2546002D07D000BF07A24F
:10E98000FF2110312846FEF7E5F900BF00BF07B0B0
:10E9900030BD0000010D020019E901002E2E5C2E91
:10E9A0002E5C2E2E5C6D61696E2E630038B51F489B
:10E9B00001F040FC002829D11D48007800280AD029
:10E9C0001C484069002820D0002000901948416967
:10E9D0006846884719E018480078002802D1154891
:10E9E000456801E0134885680022294613480068FD
:10E9F000FEF7EAFA0446002C07D00E48806900288A
:10EA000003D00C488169204688470AE009484069DC
:10EA1000002806D0012000900648416968468847D2
:10EA200000BF00200249087038BD0000E02000202F
:10EA3000E8200020D0260020DC2000201029020041
:10EA400010B5012200210846FFF726F9044600BF51
:10EA5000002C03D0072C01D0204610BD00BF072298
:10EA600002210120FFF718F9044600BF002C03D053
:10EA7000072C01D02046F0E700BF0422022100202D
:10EA8000FFF70AF9044600BF002C03D0072C01D081
:10EA90002046E2E700BF0020DFE7000070B5034634
:10EAA0000C460820002115E00C254D430B4EAD19F6
:10EAB000AD7A2540002D0CD0094DAB4205D00C2578
:10EAC0004D43AD192D899D4202D11160002003E014
:10EAD0000520491C0029E7D000BF70BD2C2800206C
:10EAE000FFFF000010B5044601210C2060430A4AD4
:10EAF00080188172891E0C20604380180181FF21DB
:10EB00000C2060438018C1720C21614388180721D2
:10EB1000FCF74FFB10BD00002C28002010B500BFF3
:10EB2000EFF30580C105C90D00291FD00A46103A30
:10EB300050B200280CDA0E4B0407240F083CA4083E
:10EB4000A4001B598407E40EE3401B069B0F0BE057
:10EB5000084B032424021B198408A4001B598407B2
:10EB6000E40EE3401B069B0FD8B210BD0420FCE767
:10EB70001CED00E000E100E010B51C480068082131
:10EB8000084000282FD11A480068401C1849086026
:10EB900018480068002803D0042003F0F9F824E0A6
:10EBA00001F0ACFB002803D0022003F0F1F81CE0D8
:10EBB00011480068002813D00C480078C007C00F27
:10EBC000002809D109480068012108430749086065
:10EBD000002003F0DDF808E0032003F0D9F804E09A
:10EBE00003F0AAF801E003F0B7F810BD2C210020D3
:10EBF0001C210020142100201821002010B50C48F1
:10EC000000680821084000280FD109480068022147
:10EC10000840002805D0064800680121084304493F
:10EC20000860022003F0B4F801E003F095F810BD8D
:10EC30002C21002070B596B0044600254D4B0FCB1B
:10EC400011AE0FC6032110A88182B11C11A863DF89
:10EC50001C210AA8FCF7ADFA08A8007A0221884313
:10EC6000811C08A80172007A08218843083008A98D
:10EC700008720020099000BF08A800790109090165
:10EC8000491C08A801710079F0218843103008A9B7
:10EC9000087100BF00BF08A8407901090901491C9B
:10ECA00008A841714079F0218843103008A94871C3
:10ECB00000BF08A8807906218843811C08A88171BB
:10ECC00009A80F9008A8007A10218843411808A8C5
:10ECD00001720020089008A8807806218843801CD3
:10ECE00008A9887000BF08A8007801090901491C1B
:10ECF00008A801700078F0218843103008A9087036
:10ED000000BF00BF08A8407801090901491C08A8F4
:10ED100041704078F0218843103008A9487000BF46
:10ED2000142103A8FCF745FA15A8039008A804903D
:10ED30000A2168460183818201210181002001901E
:10ED400000906846079060882346143303AA0AA9F6
:10ED5000A2DF054600BF2E46002E06D000BF06A249
:10ED600067213046FDF7F6FF00BF00BF002016B058
:10ED700070BD0000942802002E2E5C2E2E5C2E2EDC
:10ED80005C74656D70657261747572655F536572F0
:10ED9000766963652E630000FEB504460E46A178D1
:10EDA0006A46284802F0B6F80546002D49D1607839
:10EDB0000C21484324494018807A402108404028CB
:10EDC00001D0022E01D1214F04E0012E01D1204FAC
:10EDD00000E0204FA0781C2250431F4A81180023D6
:10EDE0001C226846B8470546002D1AD1022E18D0BD
:10EDF00060780C21484314494018807A40218843A8
:10EE000061780C225143104A8918887260781C225C
:10EE10005043124A81181C231A466846B8470546D3
:10EE200000BF022E0DD020780C2148430C49401819
:10EE3000807A80000B490A5821466846904705466B
:10EE400000BFFEBDEC2000202C280020D5140200BD
:10EE5000A9130200551C020028270020EC270020DF
:10EE60003828002014290200F8B505460E461B4F2D
:10EE700000242EE01C20604319494018807EFF28A2
:10EE800026D13078022814D01C2060434018807EA0
:10EE9000022188431C216143114A891888761C216C
:10EEA000614389180846103007223146FCF768F99B
:10EEB0000BE01C2060430A494018807E410849004D
:10EEC0001C206043064A801881762C70002702E0DF
:10EED000641C072CCED300BF3846F8BD4380000029
:10EEE00028270020F8B505460E4617460520009055
:10EEF00000241BE0002D06D11C2060430E49401861
:10EF0000008BB8420DD0002D0FD01C2161430A4A5E
:10EF100089180846103007222946FCF755F90028C1
:10EF200003D134600020009002E0641C072CE1D380
:10EF300000BF0098F8BD0000282700207CB50546DA
:10EF4000A9B26A46084801F0E5FF0446002C09D141
:10EF50007421684602F030F80446002C02D128469D
:10EF600001F078FF20467CBDEC200020F8B5064675
:10EF70000F46144600BF2546002D07D000BF05A24E
:10EF8000FF21DF312846FDF7E5FE00BF00BF00206E
:10EF9000F8BD00002E2E5C2E2E5C2E2E5C6D61695D
:10EFA0006E2E63007FB50546039502F0ABF804466C
:10EFB00000BF2646002E07D000BF29A2FF21F9314D
:10EFC0003046FDF7C7FE00BF00BF03A800F0D0FB2E
:10EFD000044600BF2646002E07D000BF20A2FF2116
:10EFE000FC313046FDF7B6FE00BF00BF052101A889
:10EFF0000130FCF7DEF86846407941084900491CB9
:10F000006846417140790221884301466846417152
:10F01000407970218843014630316846417140791A
:10F020008021884301466846417107218171102182
:10F03000C1710F48009001216846017169460D4871
:10F0400000F042FD044600BF2646002E06D000BF59
:10F0500003A209493046FDF77DFE00BF00BF7FBD1A
:10F060002E2E5C2E2E5C2E2E5C6D61696E2E630042
:10F070006DEF0100802000200902000070B586B00D
:10F080000546164B0FCB01AC0FC415486946888264
:10F09000163101A863DF044600BF2646002E06D0C5
:10F0A00000BF10A276213046FDF754FE00BF00BF1E
:10F0B0002A4605A90120A0DF044600BF2646002EEF
:10F0C00006D000BF07A27D213046FDF743FE00BFFA
:10F0D00000BF2846FFF710F906B070BD8428020073
:10F0E000111100002E2E5C2E2E5C2E2E5C64657697
:10F0F0006963655F696E666F5F7365727669636584
:10F100002E630000F0B591B00446FF200F9000265A
:10F110000020099000BFF9480078002801D111B003
:10F12000F0BD00BF00BFF6480068002800D1F6E738
:10F1300000BF0EA800F00EFB054600BF2F46002FB3
:10F1400006D000BFEF4AF0493846FDF703FE00BF86
:10F1500000BF00200A900025201D0C902C2168463D
:10F160008186FF2108A88176002101760020109079
:10F170002088102813D0A08810AA0221FFF78EFC47
:10F180000546002D0BD10C2110984843DF4940184B
:10F19000C17A08A881761098C1B208A84176208863
:10F1A00019287DD008DC10280DD011287ED0132816
:10F1B00078D0142877D1B7E01A2875D01E2874D0DB
:10F1C0005228F7D18DE210AF3A460121D048FFF71F
:10F1D00065FC08900898002807D102210C223868A5
:10F1E0005043CA4A8018817201E0042008900898B0
:10F1F0000546002D53D10126112108A8017310984E
:10F20000C1B208A84176A1880C2210985043BF4A89
:10F210008018018102210C2210985043BB4A8018AB
:10F2200081720C2210995143B84A8818072221464E
:10F230000831FBF7A5FFE07D304000280AD0E07DD3
:10F240004008B449085CFF280BD0E07D4008085C0A
:10F250000F9006E0AE4A0FA920460830FFF742FEA5
:10F260000546002D1BD10F98C1B20C2210985043B7
:10F27000A64A8018C1720C211098484311464018C4
:10F28000807A082108430C22109951439F4A89181B
:10F29000887208A90F9888760EA8FEF717FC2FE24F
:10F2A000FCE003E085E02AE2B8E123E20C211098BB
:10F2B000484396494018807A022188430C221099CD
:10F2C0005143924A891888720C211098484311467C
:10F2D0004018807A0821084008280ED10C21109887
:10F2E000484311464018807A8021084080280FD179
:10F2F00000210EA8FFF750FD0AE008A8807EFF2835
:10F3000006D008A9887E01F0A5FDFF2008A988760F
:10F3100010210C22109850437C4A801881720126DB
:10F32000122008A90873EBE10C2110984843774993
:10F330004018C07AFF2823D1228A0FA90020FFF7A6
:10F34000D1FD0546002D1BD10F98C1B20C2210989B
:10F3500050436E4A8018C1720C21109848431146E0
:10F360004018807A082108430C2210995143674ABB
:10F370008918887208A90F9888760EA8FEF7A6FB50
:10F380000C211098484361494018C07AFF2805D0E5
:10F390001C21109848436049401809901C2310997B
:10F3A00059435E4BCA18A0880023099986DF054699
:10F3B000A6E1132008A908730C211098484353496B
:10F3C0004018807A042108430C22109951434F4A77
:10F3D0008918887201260C2110984843114640185C
:10F3E000C07AFF283ED10C22109850430A4681185B
:10F3F0000FA8FFF739FD0546002D0BD108A90F987E
:10F4000088760F98C1B20C22109850433F4A80185A
:10F41000C17201E00A950126002005900C21109888
:10F4200048433A494018C07A1C2148433B49411897
:10F4300006910021079108911C21109848433649F4
:10F44000401801900020029003900490A08801AB26
:10F450002B4A121D00217FDF0546002D01D00A95A1
:10F4600000261AE00C211098484328494018807A59
:10F47000402108430C2210995143244A891888726C
:10F48000162008A90873A08800231A4685217FDF6B
:10F490000546002D01D00A95002631E11848407A32
:10F4A00040084000164948720C21109848431749FB
:10F4B0004018807A042188430C2210995143134A42
:10F4C00089188872142008A908730126207A002858
:10F4D00026D00C211098484311464018807A4021CC
:10F4E0000840402809D00C2210995143074A891836
:10F4F000C87AFFF723FD207A0A908EE0F8200020DA
:10F5000038280020C0290200F10900002C28002022
:10F51000FFFF0000F9200020EC2700202827002012
:10F52000607A4007C00F002877D008A8807EFF28A7
:10F5300073D00C21109848437F494018807A0821E5
:10F5400008430C22109951437B4A89188872607BCA
:10F550008007C00F00280FD008A8807E1C214843D8
:10F5600076494018807E4108490008A8807E1C2208
:10F570005043724A801881760C21109848436E4996
:10F580004018C07AFF2848D00C21109848436A4997
:10F59000085C022820D00C23109A5A430B46D1183D
:10F5A00008AA927E1C235A43644BD218104610308E
:10F5B0000722FBF7E5FD08A8807E1C2148435F4930
:10F5C0004018807E0221884308A9897E1C2251436D
:10F5D0005A4A891888761CE01C21109848435849DB
:10F5E0004018418A08A8807E1C225043534A801844
:10F5F000018308A8807E1C21484311464018807E64
:10F600004108490008A8807E1C2250434B4A8018BC
:10F61000817601210EA8FFF7BFFB71E0207A000977
:10F6200001283DD1207A0007000F012838D10C2194
:10F630001098484340494018807A0821084008281B
:10F640002ED12422109951433E4A891808181A21B4
:10F65000FBF7AFFD162008A908730C21109848434A
:10F6600035494018807A202108430C2210995143D3
:10F67000314A891888720C21109848431146401865
:10F68000807A402108430C22109951432A4A891854
:10F6900088722D48407A022108432B4948721CE0A9
:10F6A0000C211098484324494018807A802108434F
:10F6B0000C2210995143204A89188872152008A9F4
:10F6C00008732148807A8000204A11580EA8884784
:10F6D0000546002D01D01E480A9000200A90012600
:10F6E0000EE01948807A8000184A11580EA8884701
:10F6F0000A9005E0132008A90873012600E000BF66
:10F7000000BF002E16D00BA90EA80A9AFDF7A6FB83
:10F7100008A8007B12280DD100BF0C211098484387
:10F7200005494018807A012802D01098FFF7DAF9CD
:10F7300000BF00BF00BFF2E42C28002028270020D3
:10F74000EC27002008280020382800203429020057
:10F75000418000000146002901D104487047FF2084
:10F76000087048708870C8700020F7E70E800000AD
:10F770007FB50646002E02D1374804B070BD002484
:10F780000FE000BF00210C206043344A11500C20D0
:10F790006043801841720C2060438018817200BF62
:10F7A000641C002CEDD0002403E02046FFF79AF9FA
:10F7B000641C002CF9D024212948FBF7FAFC002412
:10F7C00006E0204601F046FBFF2026490855641C50
:10F7D000072CF6D37421684681810721C181224814
:10F7E0000290224902A801F04FFD0546002D30D1BC
:10F7F00001201F4908703078002821D100241CE026
:10F80000A1B26A46194801F085FB0546002D0FD1CB
:10F810001C216143174A881800231C22694601F005
:10F82000B5FC0546002D07D000201149087006E000
:10F8300000200F49087002E0641C072CE0D308E0A8
:10F840006A469089D289504381B2084801F0B4FBDE
:10F850000546284691E700000E8000003828002069
:10F8600008280020F920002079F80100EC20002071
:10F87000F820002028270020FFB593B01D4600BFC8
:10F8800085480068002801D117B0F0BD00BF1C9862
:10F89000742800D9F8E7012009900FA8FFF75AFF54
:10F8A000064600BF3746002F06D000BF7B4A7C4982
:10F8B0003846FDF74FFA00BF00BF002108A80177C6
:10F8C00010A801700E951C980D90002712E0B9B297
:10F8D0000AAA744801F01EFB0646002E09D1082230
:10F8E0000AA91398FBF770FC002802D108A98F77AA
:10F8F00002E07F1C072FEAD300BF08A8807FFF2803
:10F9000079D0149803280AD11C98742803D1202098
:10F9100010A908709AE0402010A9087096E062498A
:10F92000681A1C21FBF702FC0446072C1DD20CA808
:10F9300011901598002810D108A9887F01218140D5
:10F940005A4A12681140002901D0012100E000212B
:10F95000002902D10020099078E008A9887F02F0F0
:10F9600059FE202010A9087070E05149681A1C2126
:10F97000FBF7DCFB0446002C1BD10CA811902021C6
:10F9800010A8017008A84477002005904949069105
:10F990001C20604346494018019008A8807F1C2124
:10F9A000484341494018029001A80E9020200D9034
:10F9B0004CE04149681A2421FBF7B8FB0446002CAF
:10F9C0001AD1302110A8017008A844770121C1770D
:10F9D0000C20604339494018807A022108400228EF
:10F9E00034D008A9497F24225143334A881824215E
:10F9F000FBF7DFFB2AE04DE000200990402010A932
:10FA000008702F48854204D10320149001200990EA
:10FA10001CE008A8807F80002A490858A84215D118
:10FA2000012009900CA8119000200CE008A98A7F01
:10FA30000C214143214BC918C97A8A4202D108AA34
:10FA4000507702E0401C0028F0D000BF0998012840
:10FA500020D11498032806D110A90878032108435F
:10FA600010A908700FE01498022806D110A9087890
:10FA70000121084310A9087005E010A908780221A7
:10FA8000084310A908700CA8119010A90FA8159A86
:10FA9000FDF7E4F900BFF7E638280020C02902008E
:10FAA000A1050000EC20002028270020F4200020E1
:10FAB000EC27002044280020082800202C280020C3
:10FAC000442902000C27002070B505460C4600BFF3
:10FAD00029480078002801D1284870BD00BF002DBA
:10FAE00002D12648801DF8E7002C02D12348801D52
:10FAF000F3E72068002802D12048801DEDE7204868
:10FB00000068002834D11E49206808600522611D64
:10FB10001B48001DFBF734FB207919498872084601
:10FB2000007A4008400008720846007A02218843A3
:10FB3000801C134908720846007A04218843104942
:10FB400008720846C07940084000401CC871084649
:10FB5000C07902218843801C0949C8710846C079D0
:10FB6000042188430649C87100202870002601E05E
:10FB7000024E361F3046B0E7F82000200880000013
:10FB800038280020014614480078144A1278904220
:10FB90001DD011480078401C0F4A107010460078A4
:10FBA000022801D1002010700B48007880000C4A18
:10FBB000105808600B4A086812688018094A1060DB
:10FBC000104600680002000A106001207047002003
:10FBD000086000BFFAE7000048210020492100200A
:10FBE000402100203C21002010B50D48006808216C
:10FBF0000840002810D10B480068401C09490860E3
:10FC000000F07CFB002802D1FEF700FD06E006486C
:10FC1000007801F0A5FE01E000F030FD10BD00000D
:10FC20002C2100201C21002010210020F0B50346CB
:10FC3000002420E0134E306806689E4203D906680F
:10FC4000F61A06601BE006689B1B0668341900263E
:10FC500006600C4E35680B4FC6693E60C668002EC4
:10FC600008D00E193602360A4660C66886601668E5
:10FC7000C661156000BF034800680028DAD100BFE4
:10FC8000F0BD00003821002030B504461088C01CAB
:10FC9000984201D90C2030BD0220158848551088A3
:10FCA000401C10800120158848551088401C108089
:10FCB00015884C551088401C10800020EBE738B5A3
:10FCC00000200090684601F00DF90446082C03D08E
:10FCD000002C01D0012038BD082C07D1684600F067
:10FCE00079F80446002C01D00020F4E700980028A1
:10FCF00001D00120EFE70020EDE7000010B5044639
:10FD0000002C02D0112C08D100E00AE0064800685F
:10FD1000082108430449086003E02046FDF7C4F8C1
:10FD200000BF00BF10BD00002C21002010B50C4802
:10FD30000068401C0A49086003280DD00948007873
:10FD4000022804D00748007801F00AFE07E00648C0
:10FD5000007802F01DF802E00D20FDF7A5F810BDB7
:10FD600020210020102100201121002010B50A4878
:10FD70000078012804D0022808D0032809D102E025
:10FD800001F0A4FF06E0FFF72FFF03E001F0F4FF0E
:10FD900000E000BF00BF10BD1021002070B5044678
:10FDA000204628DF0546FFF7A9FF70BDF8B50446D9
:10FDB0000D46164632462946204629DF0746FFF7FC
:10FDC0009DFFF8BD70B504460D46E0B2FDF796F90B
:10FDD000204670BD0146002901D10320704702482A
:10FDE000406D08600020F9E7C42900203EB500BF3F
:10FDF0006846007801090901491C009168460078AD
:10FE0000F02188431030009000BF062216A16846FA
:10FE10007CDF044600BF2546002D06D000BF14A29B
:10FE2000C5212846FCF796FF00BF00BF00200190C7
:10FE30000290502168468180A021C180002101816B
:10FE4000FF219131418101A87ADF044600BF254698
:10FE5000002D06D000BF06A2CF212846FCF77AFF6E
:10FE600000BF00BF3EBD00004C42202D20310000ED
:10FE70002E2E5C2E2E5C2E2E5C6D61696E2E630024
:10FE800001460020704702460020704702460020CD
:10FE900070470000F8B505460027002000900026B6
:10FEA000687824214843334940184068002827D007
:10FEB00068780C21484330494018807A80210840F6
:10FEC00080281DD168780C2148432B494018807A3E
:10FED00040210840402813D0687824214843254910
:10FEE00040180746083768782421484321494018BC
:10FEF000808880B200906878242148431D490E58BC
:10FF000069780C2251431C4A8918088933463946BE
:10FF1000009AA9DF04460B2C0BD1012669780C222C
:10FF20005143154A8918088933463946009AA9DF92
:10FF30000446002C00D0114C012E18D169780C22F7
:10FF400051430D4A891808890D4A0C21A7DF044640
:10FF5000002C0CD00B48844208D0082C06D0801C02
:10FF6000844203D0112C01D0002400E0034C204631
:10FF7000F8BD0000082800202C2800204180000047
:10FF8000FFFF00000230000070B505460C466178A6
:10FF9000242251430D4A881838232422294601F08F
:10FFA000F5F80646002E0FD1607824214843074912
:10FFB00040184068401C002806D1002160782422A7
:10FFC0005043024A80184160304670BD0828002026
:10FFD000F3B589B00C4603271A20089061780C22EB
:10FFE00051432E4A891808893B4608AA01A9AADF6D
:10FFF0000646002E4FD1617824225143284A8918A1
:020000040002F8
:100000000846083069460A8C01A9FBF7DDF800288C
:1000100012D160780C21484320494018807A02218F
:100020000840022837D06178242251431C4A88189E
:100030002421FBF7BEF82EE06078242148431849BC
:1000400040184068002801D0164D00E0164D607839
:100050002421484312490F506946098C60782422B4
:1000600050430F4A801841606178242251430C4A62
:1000700089180846083069460A8C01A9FBF780F800
:10008000607824225043064A811838232422099894
:10009000A847064600BF00200BB0F0BD2C2800206A
:1000A00008280020D5140200A913020070B50546E7
:1000B0002846FFF7EFFE0446002C02D100BF00BF28
:1000C0000446204670BD70B505460E4631462846AA
:1000D000FFF75AFF0446002C02D100BF00BF0446C0
:1000E000204670BD70B505460E4631462846FFF7DE
:1000F0006FFF0446002C02D100BF00BF044620461B
:1001000070BD000010B5184800680821084000289C
:1001100026D100F049F900280CD0002013490860CE
:1001200011480068012108430F490860002001F0D0
:100130002FFE17E000F0E2F8002806D000200B495F
:100140000860022001F024FE0CE009480068002845
:1001500003D0032001F01CFE04E001F0EDFD01E0FE
:1001600001F0FAFD10BD00002C2100201421002018
:1001700018210020F8B529480078002800D1F8BDE2
:1001800027480068002801D1012000E00020054632
:1001900024480068002801D1012000E00020064624
:1001A00000BF002D14D1684652DF0446052C01D152
:1001B00001250CE0002C06D000BF1B4A93212046ED
:1001C000FCF7C8FD03E0164900980968884700BF9E
:1001D000002E1AD11548008800906946144800681E
:1001E00061DF0446052C01D101260DE0002C06D06C
:1001F00000BF0D4AB2212046FCF7ACFD04E00C48DC
:10020000006808490968884700BF002D02D0002E09
:1002100000D000E0C5E700BF00BFB0E7E421002048
:10022000F4210020F0210020182A0200EC210020F7
:10023000E821002001464888064A1288904206DBE1
:100240004888044A5288904201DC0120704700200F
:10025000FCE70000D42000200C48008CC0B201282C
:1002600012D10A48808C0007000F00280CD10748E3
:10027000806AF0210840402806D10448C06A08403E
:10028000002801D1012070470020FCE7C00F00F0DA
:100290001948008CC0B201282CD11748808C000767
:1002A000000F002826D11448806AF0210840002859
:1002B00006D11148C06A0840002801D101207047CA
:1002C0000D48806AF0210840102806D10A48C06A0B
:1002D0000840002801D10120F1E70748806AF02199
:1002E0000840302806D10448C06A0840002801D1DF
:1002F0000120E4E70020E2E7C00F00F0F8B5124863
:100300000078142148431049091D4518EF6800F092
:10031000F3FE00906988C919AA888918481E0099B7
:10032000FAF704FF064609480068B04207D30748B9
:100330000068B04205D106480068002801D10124B8
:1003400000E000242046F8BDC02800201C21002029
:10035000182100201348008CC0B201281FD1114879
:10036000808C0007000F002819D10E48806AF02108
:100370000840A02806D10B48C06A0840002801D1D7
:10038000012070470748806AF0210840D02806D134
:100390000448C06A0840002801D10120F1E700208C
:1003A000EFE70000C00F00F0F8B510480078142106
:1003B00048430E49091D4518EE6800F09DFE009067
:1003C00069888919AA888918481E0099FAF7AEFE2B
:1003D000074607480068002805D006480068B8426C
:1003E00001D1012400E000242046F8BDC0280020EF
:1003F000182100201C21002001468807800F0028BA
:1004000001D1012070470020FCE730B50446108878
:10041000C01C984201D90C2030BD022015884855D7
:100420001088401C10801C20158848551088401CDE
:100430001080012C06D0022C08D0032C0AD0042CEA
:1004400010D10BE00020158848550DE001201588DB
:10045000485509E002201588485505E00320158815
:10046000485501E00720D7E700BF1088401C1080E6
:100470000020D1E7F8B521480068009020480678B0
:100480002EE0F0001F4909684418257824E0182060
:10049000684361680F18681CC5B2A078A84200D1F3
:1004A00000253878022802D0032812D103E07868AA
:1004B00001F0B6FD0EE007E0104908680021017464
:1004C0000E4AC169116000BF0C4800680028F3D1D2
:1004D00000E000BF00BF00BF6078A842D7D100BFD6
:1004E0003046711ECEB20028CBD104480168009876
:1004F000814201D00120F8BD0020FCE73821002016
:100500003021002034210020FEB506463C4800681A
:1005100001903C480078009063E00098C0003A49A0
:100520000968451856E0002E02D03446E66924E0FA
:100530002978182359436A6850182978491C29706A
:100540002978AA78914201D1002129704468017864
:10055000012902D1217C002900D03BE08168616043
:10056000C168A1600169E1604169A1612749097819
:10057000002901D00021616000BF25496068096839
:10058000401A0002000A2349884208D220496068C4
:10059000096801F099FCA168401820600FE01C4830
:1005A0006168006801F090FC0746A068B84203D972
:1005B000A068C01B206001E00020206000BF002078
:1005C0006060A060012020740020E061204601F0FE
:1005D000F1FC00BF002EA6D1287869788842A2D10C
:1005E00000BF0098411EC9B20091002895D104486F
:1005F00001680198814201D00120FEBD0020FCE786
:1006000038210020302100203421002051210020F9
:100610003C210020FFFF7F0001F09CFE01F0FEFD69
:10062000FDF7BCF93046FEF7BDFCFFF7DFFB01F03C
:1006300051F9FCF73FFBFEF781F9FCF79DFD032024
:10064000FCF7A2FF044600BF2546002D06D000BFE0
:1006500005A209492846FCF77DFB00BF00BF00BF8B
:1006600000F026FCFCE700002E2E5C2E2E5C2E2EC9
:100670005C6D61696E2E63009E02000010B5054836
:10068000006808218843034908600348007801F0A6
:1006900067F910BD2C21002010210020FFB581B08A
:1006A00005460E461446A888871C2088801CC11960
:1006B0000498814202D90C2005B0F0BDFE2F01D96B
:1006C0000C20F9E7781C218870542088401C208079
:1006D000FF20218870542088401C20802288911996
:1006E000288801F089FF218840182080A8880028E8
:1006F0000EDDA868002801D10720DDE7AA8823883D
:100700009819A968FAF73CFD2088A988401820802C
:100710000020D1E7FFB583B005460F461446287880
:10072000012805D16878002802D1072007B0F0BD64
:100730002088801C0699884209D82878012808D189
:100740002088801C697841180698814201D90C20C4
:10075000ECE721880698401A801E86B2019621880F
:10076000891CC81901A97DDF029000BF02980028EA
:1007700001D00298DAE700BF2878022806D168463F
:100780008088B04202DC092000900BE00820009035
:100790002878012805D16878B04202DC6878019099
:1007A00000E0019668468088FE2801D90C20BDE74C
:1007B00068468088401C218878542088401C20800E
:1007C0002188009878542088401C20802188684621
:1007D0008088081820800020A8E701460020704784
:1007E00002460020704702460020704770B504465C
:1007F0000D4629462046FBF7D3F800BFE106C90E97
:10080000012088400549086000BF00BFE106C90E0D
:10081000012088400249086000BF70BD80E200E00E
:1008200000E100E070B504460D461F48C07E002878
:1008300001D0082070BD002C00D11C4C2046FCF7D4
:10084000A7FC1948456018492069086008464068B7
:10085000002814D0267FFF211D31154800F0BFF974
:10086000FF214531124800F0BAF91249104800F052
:10087000C7F931460220FFF7B9FF00BF00BF00BF34
:1008800000BF04200A49052212028918086000BF2F
:1008900000BF00200449C875087688750120C87615
:1008A0000020887600BFC5E7A42800206829020040
:1008B000002000408000020070B504460D4600266E
:1008C00017484068002804D081218900154800F0AD
:1008D00092F91348C07D00280FD01148007E0028EF
:1008E0000AD00F484068002804D0812189000D48B3
:1008F00000F086F9112070BD0126002E07D10848AE
:10090000C575C460002006494876087602E00448B0
:100910000461057632462946204600F013F8EAE7DE
:10092000A42800200020004010B50548807E002843
:1009300004D100F0E1FE01200149887610BD0000DD
:10094000A4280020F8B516462C48807E002803D144
:10095000002E01D100F0D0FE28484068002845D183
:10096000FF214531264800F03AF900BF00BFFF21C2
:100970002531234800F02BF90546FF210931204895
:1009800000F025F90746FF2145311D4800F01FF909
:100990000446002F03D1002C01D1002DE7D0002DFB
:1009A00001D1002C00D007E000F066FE1348C07DA6
:1009B0001249497E8842D9DC00BF00200F49C87522
:1009C000002D01D00320F8BD002C01D00F20FAE744
:1009D0000A48807E002804D00021094800F021F94F
:1009E00003E00421064800F01CF904E0812189009D
:1009F000034800F005F90020E5E70000A4280020E6
:100A00000020004070B504460D4600F05BF8002859
:100A100001D0112070BD0448857584600020024912
:100A2000888200F003F8F5E7A428002010B5002420
:100A3000FF211D31214800F0D2F808211F4800F0A5
:100A4000F0F801F039FC1E484068002833D115E069
:100A500000BFFF211D31194800F0B9F8002805D169
:100A60001748808AFF2101318842F2D11448808AD8
:100A7000FF210131884201D001F01EFC1048808A1C
:100A80000F49897D8842E3DB0D48808AFF210131CF
:100A9000884201D10F240BE000BFFF211D31074820
:100AA00000F095F80028F8D00C21044800F0B9F8BF
:100AB000002003498875204610BD0000002000403A
:100AC000A42800200348807D002801D00120704721
